{
  "contractName": "Attestation",
  "abi": [
    {
      "constant": false,
      "inputs": [
        {
          "name": "_entity1",
          "type": "string"
        },
        {
          "name": "_entity2",
          "type": "string"
        },
        {
          "name": "_type",
          "type": "string"
        },
        {
          "name": "_data",
          "type": "string"
        }
      ],
      "name": "write",
      "outputs": [
        {
          "name": "",
          "type": "bool"
        }
      ],
      "payable": false,
      "stateMutability": "nonpayable",
      "type": "function"
    }
  ],
  "bytecode": "0x608060405234801561001057600080fd5b506101d3806100206000396000f300608060405260043610610041576000357c0100000000000000000000000000000000000000000000000000000000900463ffffffff1680631e9cce5714610046575b600080fd5b34801561005257600080fd5b5061017f600480360381019080803590602001908201803590602001908080601f0160208091040260200160405190810160405280939291908181526020018383808284378201915050505050509192919290803590602001908201803590602001908080601f0160208091040260200160405190810160405280939291908181526020018383808284378201915050505050509192919290803590602001908201803590602001908080601f0160208091040260200160405190810160405280939291908181526020018383808284378201915050505050509192919290803590602001908201803590602001908080601f0160208091040260200160405190810160405280939291908181526020018383808284378201915050505050509192919290505050610199565b604051808215151515815260200191505060405180910390f35b6000600190509493505050505600a165627a7a7230582014b32fe570fa0fea38bd367665783d3bcace3f62c805f7e9979543f609618db50029",
  "source": "pragma solidity ^0.4.19;\n\ncontract Attestation {\n\n    function write(string _entity1,string _entity2,string _type,string _data) public returns (bool) {\n        return true;\n    }\n}\n",
  "sourcePath": "/Users/pulkit29/Documents/smart-contracts/contracts/Attestation.sol",
  "compiler": {
    "name": "solc",
    "version": "0.4.23+commit.124ca40d.Emscripten.clang"
  },
  "schemaVersion": "2.0.0",
  "updatedAt": "2018-06-26T07:57:57.090Z"
}