{
  "contractName": "Pausable",
  "abi": [
    {
      "constant": true,
      "inputs": [],
      "name": "paused",
      "outputs": [
        {
          "name": "",
          "type": "bool"
        }
      ],
      "payable": false,
      "stateMutability": "view",
      "type": "function"
    },
    {
      "constant": true,
      "inputs": [],
      "name": "owner",
      "outputs": [
        {
          "name": "",
          "type": "address"
        }
      ],
      "payable": false,
      "stateMutability": "view",
      "type": "function"
    },
    {
      "constant": false,
      "inputs": [
        {
          "name": "newOwner",
          "type": "address"
        }
      ],
      "name": "transferOwnership",
      "outputs": [],
      "payable": false,
      "stateMutability": "nonpayable",
      "type": "function"
    },
    {
      "anonymous": false,
      "inputs": [],
      "name": "Pause",
      "type": "event"
    },
    {
      "anonymous": false,
      "inputs": [],
      "name": "Unpause",
      "type": "event"
    },
    {
      "anonymous": false,
      "inputs": [
        {
          "indexed": true,
          "name": "previousOwner",
          "type": "address"
        },
        {
          "indexed": true,
          "name": "newOwner",
          "type": "address"
        }
      ],
      "name": "OwnershipTransferred",
      "type": "event"
    },
    {
      "constant": false,
      "inputs": [],
      "name": "pause",
      "outputs": [],
      "payable": false,
      "stateMutability": "nonpayable",
      "type": "function"
    },
    {
      "constant": false,
      "inputs": [],
      "name": "unpause",
      "outputs": [],
      "payable": false,
      "stateMutability": "nonpayable",
      "type": "function"
    }
  ],
  "bytecode": "0x608060405260008060146101000a81548160ff021916908315150217905550336000806101000a81548173ffffffffffffffffffffffffffffffffffffffff021916908373ffffffffffffffffffffffffffffffffffffffff1602179055506104a08061006d6000396000f30060806040526004361061006d576000357c0100000000000000000000000000000000000000000000000000000000900463ffffffff1680633f4ba83a146100725780635c975abb146100895780638456cb59146100b85780638da5cb5b146100cf578063f2fde38b14610126575b600080fd5b34801561007e57600080fd5b50610087610169565b005b34801561009557600080fd5b5061009e610227565b604051808215151515815260200191505060405180910390f35b3480156100c457600080fd5b506100cd61023a565b005b3480156100db57600080fd5b506100e46102fa565b604051808273ffffffffffffffffffffffffffffffffffffffff1673ffffffffffffffffffffffffffffffffffffffff16815260200191505060405180910390f35b34801561013257600080fd5b50610167600480360381019080803573ffffffffffffffffffffffffffffffffffffffff16906020019092919050505061031f565b005b6000809054906101000a900473ffffffffffffffffffffffffffffffffffffffff1673ffffffffffffffffffffffffffffffffffffffff163373ffffffffffffffffffffffffffffffffffffffff161415156101c457600080fd5b600060149054906101000a900460ff1615156101df57600080fd5b60008060146101000a81548160ff0219169083151502179055507f7805862f689e2f13df9f062ff482ad3ad112aca9e0847911ed832e158c525b3360405160405180910390a1565b600060149054906101000a900460ff1681565b6000809054906101000a900473ffffffffffffffffffffffffffffffffffffffff1673ffffffffffffffffffffffffffffffffffffffff163373ffffffffffffffffffffffffffffffffffffffff1614151561029557600080fd5b600060149054906101000a900460ff161515156102b157600080fd5b6001600060146101000a81548160ff0219169083151502179055507f6985a02210a168e66602d3235cb6db0e70f92b3ba4d376a33c0f3d9434bff62560405160405180910390a1565b6000809054906101000a900473ffffffffffffffffffffffffffffffffffffffff1681565b6000809054906101000a900473ffffffffffffffffffffffffffffffffffffffff1673ffffffffffffffffffffffffffffffffffffffff163373ffffffffffffffffffffffffffffffffffffffff1614151561037a57600080fd5b600073ffffffffffffffffffffffffffffffffffffffff168173ffffffffffffffffffffffffffffffffffffffff16141515156103b657600080fd5b8073ffffffffffffffffffffffffffffffffffffffff166000809054906101000a900473ffffffffffffffffffffffffffffffffffffffff1673ffffffffffffffffffffffffffffffffffffffff167f8be0079c531659141344cd1fd0a4f28419497f9722a3daafe3b4186f6b6457e060405160405180910390a3806000806101000a81548173ffffffffffffffffffffffffffffffffffffffff021916908373ffffffffffffffffffffffffffffffffffffffff160217905550505600a165627a7a723058206c30484fa7fb9e21cc0df0460eb2e76d6856e1aa5da5bde7c6e5b8249dc9efe60029",
  "source": "pragma solidity ^0.4.19;\nimport \"./VanityStorage.sol\";\n/* The upgradable version of vanityURL contract*/\n\n/**\n* Contract for Vanity URL on SpringRole\n* This one is the upgradable contract\n* Go to beta.springrole.com to try this out!\n*/\n\n/**\n * @title Ownable\n * @dev The Ownable contract has an owner address, and provides basic authorization control\n * functions, this simplifies the implementation of “user permissions”.\n */\n\ncontract Ownable {\n  address public owner;\n\n\n  event OwnershipTransferred(address indexed previousOwner, address indexed newOwner);\n\n  /**\n   * @dev The Ownable constructor sets the original `owner` of the contract to the sender\n   * account.\n   */\n  function Ownable() {\n    owner = msg.sender;\n  }\n\n\n  /**\n   * @dev Throws if called by any account other than the owner.\n   */\n  modifier onlyOwner() {\n    require(msg.sender == owner);\n    _;\n  }\n   /**\n   * @dev Allows the current owner to transfer control of the contract to a newOwner.\n   * newOwner The address to transfer ownership to.\n   */\n  function transferOwnership(address newOwner) onlyOwner public {\n    require(newOwner != address(0));\n    OwnershipTransferred(owner, newOwner);\n    owner = newOwner;\n  }\n}\n/**\n * @title Pausable\n * @dev Base contract which allows children to implement an emergency stop mechanism.\n */\n\ncontract Pausable is Ownable {\n  event Pause();\n  event Unpause();\n\n  bool public paused = false;\n\n\n  /**\n   * @dev Modifier to make a function callable only when the contract is not paused.\n   */\n  modifier whenNotPaused() {\n    require(!paused);\n    _;\n  }\n\n  /**\n   * @dev Modifier to make a function callable only when the contract is paused.\n   */\n  modifier whenPaused() {\n    require(paused);\n    _;\n  }\n\n  /**\n   * @dev called by the owner to pause, triggers stopped state\n   */\n  function pause() onlyOwner whenNotPaused public {\n    paused = true;\n    Pause();\n  }\n\n  /**\n   * @dev called by the owner to unpause, returns to normal state\n   */\n  function unpause() onlyOwner whenPaused public {\n    paused = false;\n    Unpause();\n  }\n}\n/**\n * @title VanityURL\n * @dev The VanityURL contract provides functionality to reserve vanity URLs.\n   The address of the vanity storage contract\n * Go to https://beta.springrole.com to reserve.\n */\ncontract VanityURL_Upgrade is Ownable,Pausable {\n  VanityStorage vanityStorageaddr;\n   \n  event VanityReserved(address _to, string _vanity_url);\n  event VanityTransfered(address _to,address _from, string _vanity_url);\n  event VanityReleased(string _vanity_url);\n\n  //constructor\n  //The address of vanity storage address\n     function VanityURL_Upgrade(address vanity_store) {\n         vanityStorageaddr=VanityStorage(vanity_store);\n     }\n  \n  /*\n    function to reserve vanityURL\n    1. Checks if vanity is check is valid\n    2. Checks if address has already a vanity url\n    3. check if vanity url is used by any other or not\n    4. Check if vanity url is present in any other spingrole id\n    5. Transfer the token\n    6. Update the mapping variables\n  */\n  function reserve(string _vanity_url,string _springrole_id) whenNotPaused public {\n    _vanity_url = _toLower(_vanity_url);\n    require(vanityStorageaddr.retrieveWalletForVanity(_vanity_url)==address(0x0));\n    require(bytes(vanityStorageaddr.retrieveVanityForWallet(msg.sender)).length == 0);\n    require(bytes(vanityStorageaddr.retrieveVanityForSpringroleId(_springrole_id)).length == 0);\n    /* adding to vanity address mapping */\n    vanityStorageaddr.setWalletForVanity(msg.sender,_vanity_url);\n    /* adding to vanity springrole id mapping */\n    vanityStorageaddr.setSpringroleIdForVanity(_vanity_url,_springrole_id);\n    /* adding to springrole id vanity mapping */\n    vanityStorageaddr.setVanityForSpringroleId(_springrole_id,_vanity_url);\n    /* adding to address vanity mapping */\n    vanityStorageaddr.setVanityForWallet(msg.sender,_vanity_url);\n    VanityReserved(msg.sender, _vanity_url);\n  }\n    /*\n  function to make lowercase\n  */\n\n  function _toLower(string str) internal returns (string) {\n\t\tbytes memory bStr = bytes(str);\n\t\tbytes memory bLower = new bytes(bStr.length);\n\t\tfor (uint i = 0; i < bStr.length; i++) {\n\t\t\t// Uppercase character...\n\t\t\tif ((bStr[i] >= 65) && (bStr[i] <= 90)) {\n\t\t\t\t// So we add 32 to make it lowercase\n\t\t\t\tbLower[i] = bytes1(int(bStr[i]) + 32);\n\t\t\t} else {\n\t\t\t\tbLower[i] = bStr[i];\n\t\t\t}\n\t\t}\n\t\treturn string(bLower);\n\t}\n /*\n  function to verify vanityURL\n  1. Minimum length 4\n  2.Maximum lenght 200\n  3.Vanity url is only alphanumeric\n   */\n  function checkForValidity(string _vanity_url) returns (bool) {\n    uint length =  bytes(_vanity_url).length;\n    require(length >= 4 && length <= 200);\n    for (uint i =0; i< length; i++) {\n      var c = bytes(_vanity_url)[i];\n      if ((c < 48 ||  c > 122 || (c > 57 && c < 65) || (c > 90 && c < 97 )) && (c != 95))\n        return false;\n    }\n    return true;\n  }\n  //this is to retreive wallet address\n  function retrieveWallet(string vanity) constant public returns(address) {\n   return vanityStorageaddr.retrieveWalletForVanity(vanity);\n  }\n  //this is to retriev the spring_role_id from storage\n  function retrieveSpringId(string vanity) constant public returns(string) {\n    return vanityStorageaddr.retrieveSpringroleIdForVanity(vanity);\n  }\n  //this is to retrive vanity from wallet\n  function retrieveVanity(address _address) constant public returns(string) {\n    return vanityStorageaddr.retrieveVanityForWallet(_address);\n  }\n   /*\n  function to transfer ownership for Vanity URL\n  */\n  function transferOwnershipForVanityURL(address _to) whenNotPaused public {\n    require(bytes(vanityStorageaddr.retrieveVanityForWallet(_to)).length == 0);\n    require(bytes(vanityStorageaddr.retrieveVanityForWallet(msg.sender)).length != 0);\n    vanityStorageaddr.setVanityForWallet(_to,string(vanityStorageaddr.retrieveVanityForWallet(msg.sender)));\n    vanityStorageaddr.setWalletForVanity(_to,string(vanityStorageaddr.retrieveVanityForWallet(msg.sender)));\n    //vanity_address_mapping[address_vanity_mapping[msg.sender]] = _to;\n    VanityTransfered(msg.sender,_to,string(vanityStorageaddr.retrieveVanityForWallet(_to)));\n    vanityStorageaddr.deleteWalletVanityMapping(msg.sender);\n  }\n  /*\n     To release vanity by owner\n  */\n  function releaseVanityUrl(string _vanity_url) whenNotPaused onlyOwner public {\n    require(vanityStorageaddr.retrieveWalletForVanity(_vanity_url)!=address(0x0));\n    /* delete from address mapping */\n    vanityStorageaddr.deleteWalletVanityMapping(msg.sender);\n    /* delete from vanity mapping */\n    vanityStorageaddr.deleteVanityWalletMapping(_vanity_url);\n    /* delete from springrole id vanity mapping */\n    vanityStorageaddr.deleteSpringVanityMapping(_vanity_url);\n    /* delete from vanity springrole id mapping */\n    vanityStorageaddr.deleteVanitySpringMapping(_vanity_url);\n    /* sending VanityReleased event */\n    VanityReleased(_vanity_url);\n  }\n  /*\n  function to transfer ownership for Vanity URL by Owner (Upgraded function)\n  */\n  function reserveVanityURLByOwner(address _to,string _vanity_url,string _springrole_id,string _data) whenNotPaused onlyOwner public {\n      _vanity_url = _toLower(_vanity_url);\n      require(checkForValidity(_vanity_url));\n      /* check if vanity url is being used by anyone */\n      if(vanityStorageaddr.retrieveWalletForVanity(_vanity_url)  != address(0x0))\n      {\n        /* Sending Vanity Transfered Event */\n        VanityTransfered(vanityStorageaddr.retrieveWalletForVanity(_vanity_url),_to,_vanity_url);\n        /* delete from address mapping */\n        vanityStorageaddr.deleteWalletVanityMapping(vanityStorageaddr.retrieveWalletForVanity(_vanity_url));\n        /* delete from vanity mapping */\n        vanityStorageaddr.deleteVanityWalletMapping(_vanity_url);\n        /* delete from springrole id vanity mapping */\n        vanityStorageaddr.deleteVanitySpringMapping(_vanity_url);\n        /* delete from vanity springrole id mapping */\n        vanityStorageaddr.deleteSpringVanityMapping(_vanity_url);\n      }\n      else\n      {\n        /* sending VanityReserved event */\n        VanityReserved(_to, _vanity_url);\n      }\n      /* add new address to mapping */\n      vanityStorageaddr.setWalletForVanity(_to,_vanity_url);\n      vanityStorageaddr.setVanityForWallet(_to,_vanity_url);\n      vanityStorageaddr.setSpringroleIdForVanity(_vanity_url,_springrole_id);\n      vanityStorageaddr.setVanityForSpringroleId(_springrole_id,_vanity_url);\n  }\n   /*\n  function to change Vanity URL\n    1. Checks whether vanity URL is check is valid\n    2. Checks whether springrole id has already has a vanity\n    3. Checks if address has already a vanity url\n    4. check if vanity url is used by any other or not\n    5. Check if vanity url is present in reserved keyword\n    6. Update the mapping variables\n  */\n\n  function changeVanityURL(string _vanity_url, string _springrole_id) whenNotPaused public {\n    require(bytes(vanityStorageaddr.retrieveVanityForWallet(msg.sender)).length != 0);\n    require(bytes(vanityStorageaddr.retrieveVanityForSpringroleId(_springrole_id)).length == 0);\n    _vanity_url = _toLower(_vanity_url);\n    require(checkForValidity(_vanity_url));\n    require(vanityStorageaddr.retrieveWalletForVanity(_vanity_url) == address(0x0));\n    vanityStorageaddr.setWalletForVanity(msg.sender,_vanity_url);\n    vanityStorageaddr.setVanityForWallet(msg.sender,_vanity_url);\n    vanityStorageaddr.setSpringroleIdForVanity(_vanity_url,_springrole_id);\n    vanityStorageaddr.setVanityForSpringroleId(_springrole_id,_vanity_url);\n    VanityReserved(msg.sender, _vanity_url);\n  }\n   /*\n    function to kill contract\n  */\n\n  function kill() onlyOwner {\n    selfdestruct(owner);\n  }\n\n  /*\n    transfer eth recived to owner account if any\n  */\n  function() payable {\n    owner.transfer(msg.value);\n  }\n}",
  "sourcePath": "/Users/pulkit29/Documents/smart-contracts/contracts/VanityURL_Upgrade.sol",
  "compiler": {
    "name": "solc",
    "version": "0.4.23+commit.124ca40d.Emscripten.clang"
  },
  "schemaVersion": "2.0.0",
  "updatedAt": "2018-06-27T07:53:35.657Z"
}