{
  "contractName": "temp",
  "abi": [
    {
      "inputs": [
        {
          "name": "vanity",
          "type": "address"
        }
      ],
      "payable": false,
      "stateMutability": "nonpayable",
      "type": "constructor"
    },
    {
      "constant": false,
      "inputs": [
        {
          "name": "_vanity_url",
          "type": "string"
        },
        {
          "name": "_springrole_id",
          "type": "string"
        }
      ],
      "name": "reserve",
      "outputs": [],
      "payable": false,
      "stateMutability": "nonpayable",
      "type": "function"
    },
    {
      "constant": false,
      "inputs": [
        {
          "name": "_vanity_url",
          "type": "string"
        }
      ],
      "name": "checkForValidity",
      "outputs": [
        {
          "name": "",
          "type": "bool"
        }
      ],
      "payable": false,
      "stateMutability": "nonpayable",
      "type": "function"
    }
  ],
  "bytecode": "0x608060405234801561001057600080fd5b5060405160208061121e83398101806040528101908080519060200190929190505050806000806101000a81548173ffffffffffffffffffffffffffffffffffffffff021916908373ffffffffffffffffffffffffffffffffffffffff1602179055505061119b806100836000396000f30060806040526004361061004c576000357c0100000000000000000000000000000000000000000000000000000000900463ffffffff1680635822959114610051578063758822e614610100575b600080fd5b34801561005d57600080fd5b506100fe600480360381019080803590602001908201803590602001908080601f0160208091040260200160405190810160405280939291908181526020018383808284378201915050505050509192919290803590602001908201803590602001908080601f0160208091040260200160405190810160405280939291908181526020018383808284378201915050505050509192919290505050610181565b005b34801561010c57600080fd5b50610167600480360381019080803590602001908201803590602001908080601f0160208091040260200160405190810160405280939291908181526020018383808284378201915050505050509192919290505050610b60565b604051808215151515815260200191505060405180910390f35b61018a82610e3d565b9150600073ffffffffffffffffffffffffffffffffffffffff166000809054906101000a900473ffffffffffffffffffffffffffffffffffffffff1673ffffffffffffffffffffffffffffffffffffffff166369ba820e846040518263ffffffff167c01000000000000000000000000000000000000000000000000000000000281526004018080602001828103825283818151815260200191508051906020019080838360005b8381101561024d578082015181840152602081019050610232565b50505050905090810190601f16801561027a5780820380516001836020036101000a031916815260200191505b5092505050602060405180830381600087803b15801561029957600080fd5b505af11580156102ad573d6000803e3d6000fd5b505050506040513d60208110156102c357600080fd5b810190808051906020019092919050505073ffffffffffffffffffffffffffffffffffffffff161415156102f657600080fd5b60008060009054906101000a900473ffffffffffffffffffffffffffffffffffffffff1673ffffffffffffffffffffffffffffffffffffffff1662eaedc8336040518263ffffffff167c0100000000000000000000000000000000000000000000000000000000028152600401808273ffffffffffffffffffffffffffffffffffffffff1673ffffffffffffffffffffffffffffffffffffffff168152602001915050600060405180830381600087803b1580156103b357600080fd5b505af11580156103c7573d6000803e3d6000fd5b505050506040513d6000823e3d601f19601f8201168201806040525060208110156103f157600080fd5b81019080805164010000000081111561040957600080fd5b8281019050602081018481111561041f57600080fd5b815185600182028301116401000000008211171561043c57600080fd5b50509291905050505114151561045157600080fd5b60008060009054906101000a900473ffffffffffffffffffffffffffffffffffffffff1673ffffffffffffffffffffffffffffffffffffffff1663a3e5c431836040518263ffffffff167c01000000000000000000000000000000000000000000000000000000000281526004018080602001828103825283818151815260200191508051906020019080838360005b838110156104fc5780820151818401526020810190506104e1565b50505050905090810190601f1680156105295780820380516001836020036101000a031916815260200191505b5092505050600060405180830381600087803b15801561054857600080fd5b505af115801561055c573d6000803e3d6000fd5b505050506040513d6000823e3d601f19601f82011682018060405250602081101561058657600080fd5b81019080805164010000000081111561059e57600080fd5b828101905060208101848111156105b457600080fd5b81518560018202830111640100000000821117156105d157600080fd5b5050929190505050511415156105e657600080fd5b6000809054906101000a900473ffffffffffffffffffffffffffffffffffffffff1673ffffffffffffffffffffffffffffffffffffffff16630ec552cd33846040518363ffffffff167c0100000000000000000000000000000000000000000000000000000000028152600401808373ffffffffffffffffffffffffffffffffffffffff1673ffffffffffffffffffffffffffffffffffffffff16815260200180602001828103825283818151815260200191508051906020019080838360005b838110156106c25780820151818401526020810190506106a7565b50505050905090810190601f1680156106ef5780820380516001836020036101000a031916815260200191505b509350505050600060405180830381600087803b15801561070f57600080fd5b505af1158015610723573d6000803e3d6000fd5b505050506000809054906101000a900473ffffffffffffffffffffffffffffffffffffffff1673ffffffffffffffffffffffffffffffffffffffff1663208b648583836040518363ffffffff167c0100000000000000000000000000000000000000000000000000000000028152600401808060200180602001838103835285818151815260200191508051906020019080838360005b838110156107d55780820151818401526020810190506107ba565b50505050905090810190601f1680156108025780820380516001836020036101000a031916815260200191505b50838103825284818151815260200191508051906020019080838360005b8381101561083b578082015181840152602081019050610820565b50505050905090810190601f1680156108685780820380516001836020036101000a031916815260200191505b50945050505050600060405180830381600087803b15801561088957600080fd5b505af115801561089d573d6000803e3d6000fd5b505050506000809054906101000a900473ffffffffffffffffffffffffffffffffffffffff1673ffffffffffffffffffffffffffffffffffffffff1663f72aaa3e82846040518363ffffffff167c0100000000000000000000000000000000000000000000000000000000028152600401808060200180602001838103835285818151815260200191508051906020019080838360005b8381101561094f578082015181840152602081019050610934565b50505050905090810190601f16801561097c5780820380516001836020036101000a031916815260200191505b50838103825284818151815260200191508051906020019080838360005b838110156109b557808201518184015260208101905061099a565b50505050905090810190601f1680156109e25780820380516001836020036101000a031916815260200191505b50945050505050600060405180830381600087803b158015610a0357600080fd5b505af1158015610a17573d6000803e3d6000fd5b505050506000809054906101000a900473ffffffffffffffffffffffffffffffffffffffff1673ffffffffffffffffffffffffffffffffffffffff1663a477a08c33846040518363ffffffff167c0100000000000000000000000000000000000000000000000000000000028152600401808373ffffffffffffffffffffffffffffffffffffffff1673ffffffffffffffffffffffffffffffffffffffff16815260200180602001828103825283818151815260200191508051906020019080838360005b83811015610af7578082015181840152602081019050610adc565b50505050905090810190601f168015610b245780820380516001836020036101000a031916815260200191505b509350505050600060405180830381600087803b158015610b4457600080fd5b505af1158015610b58573d6000803e3d6000fd5b505050505050565b6000806000808451925060048310158015610b7c575060c88311155b1515610b8757600080fd5b600091505b82821015610e30578482815181101515610ba257fe5b9060200101517f010000000000000000000000000000000000000000000000000000000000000090047f010000000000000000000000000000000000000000000000000000000000000002905060307f010000000000000000000000000000000000000000000000000000000000000002817effffffffffffffffffffffffffffffffffffffffffffffffffffffffffffff19161080610c865750607a7f010000000000000000000000000000000000000000000000000000000000000002817effffffffffffffffffffffffffffffffffffffffffffffffffffffffffffff1916115b80610d25575060397f010000000000000000000000000000000000000000000000000000000000000002817effffffffffffffffffffffffffffffffffffffffffffffffffffffffffffff1916118015610d24575060417f010000000000000000000000000000000000000000000000000000000000000002817effffffffffffffffffffffffffffffffffffffffffffffffffffffffffffff1916105b5b80610dc45750605a7f010000000000000000000000000000000000000000000000000000000000000002817effffffffffffffffffffffffffffffffffffffffffffffffffffffffffffff1916118015610dc3575060617f010000000000000000000000000000000000000000000000000000000000000002817effffffffffffffffffffffffffffffffffffffffffffffffffffffffffffff1916105b5b8015610e155750605f7f010000000000000000000000000000000000000000000000000000000000000002817effffffffffffffffffffffffffffffffffffffffffffffffffffffffffffff191614155b15610e235760009350610e35565b8180600101925050610b8c565b600193505b505050919050565b6060806060600084925082516040519080825280601f01601f191660200182016040528015610e7b5781602001602082028038833980820191505090505b509150600090505b82518110156111645760417f0100000000000000000000000000000000000000000000000000000000000000028382815181101515610ebe57fe5b9060200101517f010000000000000000000000000000000000000000000000000000000000000090047f0100000000000000000000000000000000000000000000000000000000000000027effffffffffffffffffffffffffffffffffffffffffffffffffffffffffffff191610158015610fd65750605a7f0100000000000000000000000000000000000000000000000000000000000000028382815181101515610f6657fe5b9060200101517f010000000000000000000000000000000000000000000000000000000000000090047f0100000000000000000000000000000000000000000000000000000000000000027effffffffffffffffffffffffffffffffffffffffffffffffffffffffffffff191611155b156110bf5760208382815181101515610feb57fe5b9060200101517f010000000000000000000000000000000000000000000000000000000000000090047f0100000000000000000000000000000000000000000000000000000000000000027f01000000000000000000000000000000000000000000000000000000000000009004017f010000000000000000000000000000000000000000000000000000000000000002828281518110151561108a57fe5b9060200101907effffffffffffffffffffffffffffffffffffffffffffffffffffffffffffff1916908160001a905350611157565b82818151811015156110cd57fe5b9060200101517f010000000000000000000000000000000000000000000000000000000000000090047f010000000000000000000000000000000000000000000000000000000000000002828281518110151561112657fe5b9060200101907effffffffffffffffffffffffffffffffffffffffffffffffffffffffffffff1916908160001a9053505b8080600101915050610e83565b8193505050509190505600a165627a7a72305820d491b653456b35c545c72a504375b0dfce5ebb67cb93bba06a18391145fad27a0029",
  "source": "pragma solidity ^0.4.19;\nimport \"./VanityStorage.sol\";\n\ncontract temp {\n    VanityStorage vanityStorageaddr;\n    function temp(address vanity) {\n       vanityStorageaddr=VanityStorage(vanity);\n    }\n    function reserve(string _vanity_url,string _springrole_id) public {\n    _vanity_url = _toLower(_vanity_url);\n    require(vanityStorageaddr.retrieveWalletForVanity(_vanity_url)==address(0x0));\n    require(bytes(vanityStorageaddr.retrieveVanityForWallet(msg.sender)).length == 0);\n    require(bytes(vanityStorageaddr.retrieveVanityForSpringroleId(_springrole_id)).length == 0);\n    /* adding to vanity address mapping */\n    vanityStorageaddr.setWalletForVanity(msg.sender,_vanity_url);\n    /* adding to vanity springrole id mapping */\n    vanityStorageaddr.setSpringroleIdForVanity(_vanity_url,_springrole_id);\n    /* adding to springrole id vanity mapping */\n    vanityStorageaddr.setVanityForSpringroleId(_springrole_id,_vanity_url);\n    /* adding to address vanity mapping */\n    vanityStorageaddr.setVanityForWallet(msg.sender,_vanity_url);\n   // VanityReserved(msg.sender, _vanity_url);\n  }\n    /*\n  function to make lowercase\n  */\n\n  function _toLower(string str) internal returns (string) {\n\t\tbytes memory bStr = bytes(str);\n\t\tbytes memory bLower = new bytes(bStr.length);\n\t\tfor (uint i = 0; i < bStr.length; i++) {\n\t\t\t// Uppercase character...\n\t\t\tif ((bStr[i] >= 65) && (bStr[i] <= 90)) {\n\t\t\t\t// So we add 32 to make it lowercase\n\t\t\t\tbLower[i] = bytes1(int(bStr[i]) + 32);\n\t\t\t} else {\n\t\t\t\tbLower[i] = bStr[i];\n\t\t\t}\n\t\t}\n\t\treturn string(bLower);\n\t}\n /*\n  function to verify vanityURL\n  1. Minimum length 4\n  2.Maximum lenght 200\n  3.Vanity url is only alphanumeric\n   */\n  function checkForValidity(string _vanity_url) returns (bool) {\n    uint length =  bytes(_vanity_url).length;\n    require(length >= 4 && length <= 200);\n    for (uint i =0; i< length; i++) {\n      var c = bytes(_vanity_url)[i];\n      if ((c < 48 ||  c > 122 || (c > 57 && c < 65) || (c > 90 && c < 97 )) && (c != 95))\n        return false;\n    }\n    return true;\n  }\n}",
  "sourcePath": "/Users/pulkit29/Documents/smart-contracts/contracts/temp.sol",
  "compiler": {
    "name": "solc",
    "version": "0.4.23+commit.124ca40d.Emscripten.clang"
  },
  "schemaVersion": "2.0.0",
  "updatedAt": "2018-06-26T09:48:00.921Z"
}