{
  "contractName": "VanityStorage",
  "abi": [
    {
      "constant": true,
      "inputs": [],
      "name": "owner",
      "outputs": [
        {
          "name": "",
          "type": "address"
        }
      ],
      "payable": false,
      "stateMutability": "view",
      "type": "function"
    },
    {
      "anonymous": false,
      "inputs": [
        {
          "indexed": false,
          "name": "add",
          "type": "address"
        }
      ],
      "name": "Check",
      "type": "event"
    },
    {
      "constant": false,
      "inputs": [
        {
          "name": "newAddr",
          "type": "address"
        }
      ],
      "name": "allowAccess",
      "outputs": [],
      "payable": false,
      "stateMutability": "nonpayable",
      "type": "function"
    },
    {
      "constant": true,
      "inputs": [
        {
          "name": "_vanity_url",
          "type": "string"
        }
      ],
      "name": "retrieveWalletForVanity",
      "outputs": [
        {
          "name": "",
          "type": "address"
        }
      ],
      "payable": false,
      "stateMutability": "view",
      "type": "function"
    },
    {
      "constant": false,
      "inputs": [
        {
          "name": "_address",
          "type": "address"
        },
        {
          "name": "_vanity_url",
          "type": "string"
        }
      ],
      "name": "setWalletForVanity",
      "outputs": [],
      "payable": false,
      "stateMutability": "nonpayable",
      "type": "function"
    },
    {
      "constant": true,
      "inputs": [
        {
          "name": "_address",
          "type": "address"
        }
      ],
      "name": "retrieveVanityForWallet",
      "outputs": [
        {
          "name": "",
          "type": "string"
        }
      ],
      "payable": false,
      "stateMutability": "view",
      "type": "function"
    },
    {
      "constant": false,
      "inputs": [
        {
          "name": "_address",
          "type": "address"
        },
        {
          "name": "vanity_url",
          "type": "string"
        }
      ],
      "name": "setVanityForWallet",
      "outputs": [],
      "payable": false,
      "stateMutability": "nonpayable",
      "type": "function"
    },
    {
      "constant": true,
      "inputs": [
        {
          "name": "_vanity_url",
          "type": "string"
        }
      ],
      "name": "retrieveSpringroleIdForVanity",
      "outputs": [
        {
          "name": "",
          "type": "string"
        }
      ],
      "payable": false,
      "stateMutability": "view",
      "type": "function"
    },
    {
      "constant": false,
      "inputs": [
        {
          "name": "_vanity_url",
          "type": "string"
        },
        {
          "name": "springroleId",
          "type": "string"
        }
      ],
      "name": "setSpringroleIdForVanity",
      "outputs": [],
      "payable": false,
      "stateMutability": "nonpayable",
      "type": "function"
    },
    {
      "constant": true,
      "inputs": [
        {
          "name": "_springrole_id",
          "type": "string"
        }
      ],
      "name": "retrieveVanityForSpringroleId",
      "outputs": [
        {
          "name": "",
          "type": "string"
        }
      ],
      "payable": false,
      "stateMutability": "view",
      "type": "function"
    },
    {
      "constant": false,
      "inputs": [
        {
          "name": "_springrole_id",
          "type": "string"
        },
        {
          "name": "vanity_url",
          "type": "string"
        }
      ],
      "name": "setVanityForSpringroleId",
      "outputs": [],
      "payable": false,
      "stateMutability": "nonpayable",
      "type": "function"
    },
    {
      "constant": false,
      "inputs": [
        {
          "name": "_add",
          "type": "address"
        }
      ],
      "name": "deleteWalletVanityMapping",
      "outputs": [],
      "payable": false,
      "stateMutability": "nonpayable",
      "type": "function"
    },
    {
      "constant": false,
      "inputs": [
        {
          "name": "vanity",
          "type": "string"
        }
      ],
      "name": "deleteVanityWalletMapping",
      "outputs": [],
      "payable": false,
      "stateMutability": "nonpayable",
      "type": "function"
    },
    {
      "constant": false,
      "inputs": [
        {
          "name": "vanity",
          "type": "string"
        }
      ],
      "name": "deleteSpringVanityMapping",
      "outputs": [],
      "payable": false,
      "stateMutability": "nonpayable",
      "type": "function"
    },
    {
      "constant": false,
      "inputs": [
        {
          "name": "vanity",
          "type": "string"
        }
      ],
      "name": "deleteVanitySpringMapping",
      "outputs": [],
      "payable": false,
      "stateMutability": "nonpayable",
      "type": "function"
    }
  ],
  "bytecode": "0x6080604052336000806101000a81548173ffffffffffffffffffffffffffffffffffffffff021916908373ffffffffffffffffffffffffffffffffffffffff160217905550611561806100536000396000f3006080604052600436106100cf576000357c0100000000000000000000000000000000000000000000000000000000900463ffffffff168062eaedc8146100d457806303547514146101905780630ec552cd14610272578063208b6485146102fb5780632c8dc743146103aa5780635447bd3e1461041357806369ba820e1461047c5780636adafd42146105255780638da5cb5b1461058e578063a3e5c431146105e5578063a477a08c146106c7578063c4a85bc114610750578063efc2c0fd14610793578063f72aaa3e146107d6575b600080fd5b3480156100e057600080fd5b50610115600480360381019080803573ffffffffffffffffffffffffffffffffffffffff169060200190929190505050610885565b6040518080602001828103825283818151815260200191508051906020019080838360005b8381101561015557808201518184015260208101905061013a565b50505050905090810190601f1680156101825780820380516001836020036101000a031916815260200191505b509250505060405180910390f35b34801561019c57600080fd5b506101f7600480360381019080803590602001908201803590602001908080601f0160208091040260200160405190810160405280939291908181526020018383808284378201915050505050509192919290505050610966565b6040518080602001828103825283818151815260200191508051906020019080838360005b8381101561023757808201518184015260208101905061021c565b50505050905090810190601f1680156102645780820380516001836020036101000a031916815260200191505b509250505060405180910390f35b34801561027e57600080fd5b506102f9600480360381019080803573ffffffffffffffffffffffffffffffffffffffff169060200190929190803590602001908201803590602001908080601f0160208091040260200160405190810160405280939291908181526020018383808284378201915050505050509192919290505050610a73565b005b34801561030757600080fd5b506103a8600480360381019080803590602001908201803590602001908080601f0160208091040260200160405190810160405280939291908181526020018383808284378201915050505050509192919290803590602001908201803590602001908080601f0160208091040260200160405190810160405280939291908181526020018383808284378201915050505050509192919290505050610b82565b005b3480156103b657600080fd5b50610411600480360381019080803590602001908201803590602001908080601f0160208091040260200160405190810160405280939291908181526020018383808284378201915050505050509192919290505050610c67565b005b34801561041f57600080fd5b5061047a600480360381019080803590602001908201803590602001908080601f0160208091040260200160405190810160405280939291908181526020018383808284378201915050505050509192919290505050610d59565b005b34801561048857600080fd5b506104e3600480360381019080803590602001908201803590602001908080601f0160208091040260200160405190810160405280939291908181526020018383808284378201915050505050509192919290505050610e34565b604051808273ffffffffffffffffffffffffffffffffffffffff1673ffffffffffffffffffffffffffffffffffffffff16815260200191505060405180910390f35b34801561053157600080fd5b5061058c600480360381019080803590602001908201803590602001908080601f0160208091040260200160405190810160405280939291908181526020018383808284378201915050505050509192919290505050610ec9565b005b34801561059a57600080fd5b506105a3611014565b604051808273ffffffffffffffffffffffffffffffffffffffff1673ffffffffffffffffffffffffffffffffffffffff16815260200191505060405180910390f35b3480156105f157600080fd5b5061064c600480360381019080803590602001908201803590602001908080601f0160208091040260200160405190810160405280939291908181526020018383808284378201915050505050509192919290505050611039565b6040518080602001828103825283818151815260200191508051906020019080838360005b8381101561068c578082015181840152602081019050610671565b50505050905090810190601f1680156106b95780820380516001836020036101000a031916815260200191505b509250505060405180910390f35b3480156106d357600080fd5b5061074e600480360381019080803573ffffffffffffffffffffffffffffffffffffffff169060200190929190803590602001908201803590602001908080601f0160208091040260200160405190810160405280939291908181526020018383808284378201915050505050509192919290505050611146565b005b34801561075c57600080fd5b50610791600480360381019080803573ffffffffffffffffffffffffffffffffffffffff1690602001909291905050506111ff565b005b34801561079f57600080fd5b506107d4600480360381019080803573ffffffffffffffffffffffffffffffffffffffff1690602001909291905050506112b4565b005b3480156107e257600080fd5b50610883600480360381019080803590602001908201803590602001908080601f0160208091040260200160405190810160405280939291908181526020018383808284378201915050505050509192919290803590602001908201803590602001908080601f0160208091040260200160405190810160405280939291908181526020018383808284378201915050505050509192919290505050611363565b005b6060600360008373ffffffffffffffffffffffffffffffffffffffff1673ffffffffffffffffffffffffffffffffffffffff1681526020019081526020016000208054600181600116156101000203166002900480601f01602080910402602001604051908101604052809291908181526020018280546001816001161561010002031660029004801561095a5780601f1061092f5761010080835404028352916020019161095a565b820191906000526020600020905b81548152906001019060200180831161093d57829003601f168201915b50505050509050919050565b60606004826040518082805190602001908083835b6020831015156109a0578051825260208201915060208101905060208303925061097b565b6001836020036101000a03801982511681845116808217855250505050505090500191505090815260200160405180910390208054600181600116156101000203166002900480601f016020809104026020016040519081016040528092919081815260200182805460018160011615610100020316600290048015610a675780601f10610a3c57610100808354040283529160200191610a67565b820191906000526020600020905b815481529060010190602001808311610a4a57829003601f168201915b50505050509050919050565b3360011515600160008373ffffffffffffffffffffffffffffffffffffffff1673ffffffffffffffffffffffffffffffffffffffff16815260200190815260200160002060009054906101000a900460ff161515141515610ad357600080fd5b826002836040518082805190602001908083835b602083101515610b0c5780518252602082019150602081019050602083039250610ae7565b6001836020036101000a038019825116818451168082178552505050505050905001915050908152602001604051809103902060006101000a81548173ffffffffffffffffffffffffffffffffffffffff021916908373ffffffffffffffffffffffffffffffffffffffff160217905550505050565b3360011515600160008373ffffffffffffffffffffffffffffffffffffffff1673ffffffffffffffffffffffffffffffffffffffff16815260200190815260200160002060009054906101000a900460ff161515141515610be257600080fd5b816004846040518082805190602001908083835b602083101515610c1b5780518252602082019150602081019050602083039250610bf6565b6001836020036101000a03801982511681845116808217855250505050505090500191505090815260200160405180910390209080519060200190610c61929190611448565b50505050565b3360011515600160008373ffffffffffffffffffffffffffffffffffffffff1673ffffffffffffffffffffffffffffffffffffffff16815260200190815260200160002060009054906101000a900460ff161515141515610cc757600080fd5b6002826040518082805190602001908083835b602083101515610cff5780518252602082019150602081019050602083039250610cda565b6001836020036101000a038019825116818451168082178552505050505050905001915050908152602001604051809103902060006101000a81549073ffffffffffffffffffffffffffffffffffffffff02191690555050565b3360011515600160008373ffffffffffffffffffffffffffffffffffffffff1673ffffffffffffffffffffffffffffffffffffffff16815260200190815260200160002060009054906101000a900460ff161515141515610db957600080fd5b6004826040518082805190602001908083835b602083101515610df15780518252602082019150602081019050602083039250610dcc565b6001836020036101000a03801982511681845116808217855250505050505090500191505090815260200160405180910390206000610e3091906114c8565b5050565b60006002826040518082805190602001908083835b602083101515610e6e5780518252602082019150602081019050602083039250610e49565b6001836020036101000a038019825116818451168082178552505050505050905001915050908152602001604051809103902060009054906101000a900473ffffffffffffffffffffffffffffffffffffffff169050919050565b3360011515600160008373ffffffffffffffffffffffffffffffffffffffff1673ffffffffffffffffffffffffffffffffffffffff16815260200190815260200160002060009054906101000a900460ff161515141515610f2957600080fd5b60056004836040518082805190602001908083835b602083101515610f635780518252602082019150602081019050602083039250610f3e565b6001836020036101000a03801982511681845116808217855250505050505090500191505090815260200160405180910390206040518082805460018160011615610100020316600290048015610ff15780601f10610fcf576101008083540402835291820191610ff1565b820191906000526020600020905b815481529060010190602001808311610fdd575b50509150509081526020016040518091039020600061101091906114c8565b5050565b6000809054906101000a900473ffffffffffffffffffffffffffffffffffffffff1681565b60606005826040518082805190602001908083835b602083101515611073578051825260208201915060208101905060208303925061104e565b6001836020036101000a03801982511681845116808217855250505050505090500191505090815260200160405180910390208054600181600116156101000203166002900480601f01602080910402602001604051908101604052809291908181526020018280546001816001161561010002031660029004801561113a5780601f1061110f5761010080835404028352916020019161113a565b820191906000526020600020905b81548152906001019060200180831161111d57829003601f168201915b50505050509050919050565b3360011515600160008373ffffffffffffffffffffffffffffffffffffffff1673ffffffffffffffffffffffffffffffffffffffff16815260200190815260200160002060009054906101000a900460ff1615151415156111a657600080fd5b81600360008573ffffffffffffffffffffffffffffffffffffffff1673ffffffffffffffffffffffffffffffffffffffff16815260200190815260200160002090805190602001906111f9929190611448565b50505050565b6000809054906101000a900473ffffffffffffffffffffffffffffffffffffffff1673ffffffffffffffffffffffffffffffffffffffff163373ffffffffffffffffffffffffffffffffffffffff1614151561125a57600080fd5b60018060008373ffffffffffffffffffffffffffffffffffffffff1673ffffffffffffffffffffffffffffffffffffffff16815260200190815260200160002060006101000a81548160ff02191690831515021790555050565b3360011515600160008373ffffffffffffffffffffffffffffffffffffffff1673ffffffffffffffffffffffffffffffffffffffff16815260200190815260200160002060009054906101000a900460ff16151514151561131457600080fd5b600360008373ffffffffffffffffffffffffffffffffffffffff1673ffffffffffffffffffffffffffffffffffffffff168152602001908152602001600020600061135f91906114c8565b5050565b3360011515600160008373ffffffffffffffffffffffffffffffffffffffff1673ffffffffffffffffffffffffffffffffffffffff16815260200190815260200160002060009054906101000a900460ff1615151415156113c357600080fd5b816005846040518082805190602001908083835b6020831015156113fc57805182526020820191506020810190506020830392506113d7565b6001836020036101000a03801982511681845116808217855250505050505090500191505090815260200160405180910390209080519060200190611442929190611448565b50505050565b828054600181600116156101000203166002900490600052602060002090601f016020900481019282601f1061148957805160ff19168380011785556114b7565b828001600101855582156114b7579182015b828111156114b657825182559160200191906001019061149b565b5b5090506114c49190611510565b5090565b50805460018160011615610100020316600290046000825580601f106114ee575061150d565b601f01602090049060005260206000209081019061150c9190611510565b5b50565b61153291905b8082111561152e576000816000905550600101611516565b5090565b905600a165627a7a7230582025e20e35c2466bad1e8604aec2af103a0fb39e96fa887ea040a43db7d9d61ead0029",
  "source": "pragma solidity ^0.4.18;\n/*\n** The storage contract for vanityURL_Upgradable contract\n** Storage contract remains same even when logic of vanity contract is changed\n*/\ncontract Ownable2 {\n  address public owner;\n  /**\n   * @dev The Ownable constructor sets the original `owner` of the contract to the sender\n   * account.\n   */\n  function Ownable2() {\n    owner = msg.sender;\n  }\n   /**\n   * @dev Throws if called by any account other than the owner.\n   */\n  modifier onlyOwner2() {\n    require(msg.sender == owner);\n    _;\n  }\n}\n\n//The contract keeps track of storage\ncontract VanityStorage is Ownable2 {\n  mapping(address => bool) Access_allowed;\n  event Check(address add);\n  //to check that the request is actually coming from the vanity contract\n  modifier checkVanity(address _add) {\n    require(Access_allowed[_add]==true);\n     _;\n  }\n  // This declares a state variable that mapping for vanityURL to address\n  mapping (string => address) vanity_address_mapping;\n  // This declares a state variable that mapping for address to vanityURL\n  mapping (address => string ) address_vanity_mapping;\n  // This declares a state variable that mapping for vanityURL to Springrole ID\n  mapping (string => string) vanity_springrole_id_mapping;\n  // This declares a state variable that mapping for Springrole ID to vanityURL\n  mapping (string => string) springrole_id_vanity_mapping;\n   \n   //to set the contract address\n   function allowAccess(address newAddr) onlyOwner2 public {\n     Access_allowed[newAddr]=true;\n   }\n\n  //function to retrieve address from vanity url\n    function retrieveWalletForVanity(string _vanity_url) constant public returns (address) {\n    return vanity_address_mapping[_vanity_url];\n  }\n  //function to set vanity url and address mapping\n  function setWalletForVanity(address _address,string _vanity_url) checkVanity(msg.sender) public {\n      vanity_address_mapping[_vanity_url]=_address;\n  }\n  /* function to retrive vanity url from address */\n  function retrieveVanityForWallet(address _address) constant public returns (string) {\n    return address_vanity_mapping[_address];\n  }\n  //function to set address and vanity url\n  function setVanityForWallet(address _address,string vanity_url) checkVanity(msg.sender) public {\n      address_vanity_mapping[_address] = vanity_url;\n  }\n  /* function to retrive wallet springrole id from vanity url */\n  function retrieveSpringroleIdForVanity(string _vanity_url) constant public returns (string) {\n    return vanity_springrole_id_mapping[_vanity_url];\n  }\n  /* function to set wallet springrole id from vanity url */\n  function setSpringroleIdForVanity(string _vanity_url,string springroleId) checkVanity(msg.sender) public {\n    vanity_springrole_id_mapping[_vanity_url]=springroleId;\n  }\n\n  /* function to retrive vanity url from address */\n  \n  function retrieveVanityForSpringroleId(string _springrole_id) constant public returns (string) {\n    return springrole_id_vanity_mapping[_springrole_id];\n  }\n  /* function to set vanity url from address */\n  function setVanityForSpringroleId(string _springrole_id,string vanity_url) checkVanity(msg.sender) public {\n    springrole_id_vanity_mapping[_springrole_id] = vanity_url;\n  }\n  //function to delete address vanity mapping\n  function deleteWalletVanityMapping(address _add) checkVanity(msg.sender) public {\n    delete address_vanity_mapping[_add];\n  }\n  //function to delete vanity address mapping\n  function deleteVanityWalletMapping(string vanity) checkVanity(msg.sender) public {\n    delete vanity_address_mapping[vanity];\n  }\n  //function to delete springroleId vanity mapping\n  function deleteSpringVanityMapping(string vanity) checkVanity(msg.sender) public {\n    delete springrole_id_vanity_mapping[vanity_springrole_id_mapping[vanity]];\n  }\n  //function to delete vanity springrole id mapping \n  function deleteVanitySpringMapping(string vanity) checkVanity(msg.sender) public {\n    delete vanity_springrole_id_mapping[vanity];\n  }\n}",
  "sourcePath": "/Users/pulkit29/Documents/smart-contracts/contracts/VanityStorage.sol",
  "compiler": {
    "name": "solc",
    "version": "0.4.23+commit.124ca40d.Emscripten.clang"
  },
  "schemaVersion": "2.0.0",
  "updatedAt": "2018-06-27T07:53:35.640Z"
}