{
  "contractName": "VanityURL_Upgrade",
  "abi": [
    {
      "constant": false,
      "inputs": [],
      "name": "unpause",
      "outputs": [],
      "payable": false,
      "stateMutability": "nonpayable",
      "type": "function"
    },
    {
      "constant": true,
      "inputs": [],
      "name": "paused",
      "outputs": [
        {
          "name": "",
          "type": "bool"
        }
      ],
      "payable": false,
      "stateMutability": "view",
      "type": "function"
    },
    {
      "constant": false,
      "inputs": [],
      "name": "pause",
      "outputs": [],
      "payable": false,
      "stateMutability": "nonpayable",
      "type": "function"
    },
    {
      "constant": true,
      "inputs": [],
      "name": "owner",
      "outputs": [
        {
          "name": "",
          "type": "address"
        }
      ],
      "payable": false,
      "stateMutability": "view",
      "type": "function"
    },
    {
      "constant": false,
      "inputs": [
        {
          "name": "newOwner",
          "type": "address"
        }
      ],
      "name": "transferOwnership",
      "outputs": [],
      "payable": false,
      "stateMutability": "nonpayable",
      "type": "function"
    },
    {
      "inputs": [
        {
          "name": "vanity_store",
          "type": "address"
        }
      ],
      "payable": false,
      "stateMutability": "nonpayable",
      "type": "constructor"
    },
    {
      "anonymous": false,
      "inputs": [
        {
          "indexed": false,
          "name": "_to",
          "type": "address"
        },
        {
          "indexed": false,
          "name": "_vanity_url",
          "type": "string"
        }
      ],
      "name": "VanityReserved",
      "type": "event"
    },
    {
      "anonymous": false,
      "inputs": [
        {
          "indexed": false,
          "name": "_to",
          "type": "address"
        },
        {
          "indexed": false,
          "name": "_from",
          "type": "address"
        },
        {
          "indexed": false,
          "name": "_vanity_url",
          "type": "string"
        }
      ],
      "name": "VanityTransfered",
      "type": "event"
    },
    {
      "anonymous": false,
      "inputs": [
        {
          "indexed": false,
          "name": "_vanity_url",
          "type": "string"
        }
      ],
      "name": "VanityReleased",
      "type": "event"
    },
    {
      "anonymous": false,
      "inputs": [],
      "name": "Pause",
      "type": "event"
    },
    {
      "anonymous": false,
      "inputs": [],
      "name": "Unpause",
      "type": "event"
    },
    {
      "anonymous": false,
      "inputs": [
        {
          "indexed": true,
          "name": "previousOwner",
          "type": "address"
        },
        {
          "indexed": true,
          "name": "newOwner",
          "type": "address"
        }
      ],
      "name": "OwnershipTransferred",
      "type": "event"
    },
    {
      "constant": false,
      "inputs": [
        {
          "name": "_vanity_url",
          "type": "string"
        },
        {
          "name": "_springrole_id",
          "type": "string"
        }
      ],
      "name": "reserve",
      "outputs": [],
      "payable": false,
      "stateMutability": "nonpayable",
      "type": "function"
    },
    {
      "constant": false,
      "inputs": [
        {
          "name": "_vanity_url",
          "type": "string"
        }
      ],
      "name": "checkForValidity",
      "outputs": [
        {
          "name": "",
          "type": "bool"
        }
      ],
      "payable": false,
      "stateMutability": "nonpayable",
      "type": "function"
    },
    {
      "constant": true,
      "inputs": [
        {
          "name": "vanity",
          "type": "string"
        }
      ],
      "name": "retrieveWallet",
      "outputs": [
        {
          "name": "",
          "type": "address"
        }
      ],
      "payable": false,
      "stateMutability": "view",
      "type": "function"
    },
    {
      "constant": true,
      "inputs": [
        {
          "name": "vanity",
          "type": "string"
        }
      ],
      "name": "retrieveSpringId",
      "outputs": [
        {
          "name": "",
          "type": "string"
        }
      ],
      "payable": false,
      "stateMutability": "view",
      "type": "function"
    },
    {
      "constant": true,
      "inputs": [
        {
          "name": "_address",
          "type": "address"
        }
      ],
      "name": "retrieveVanity",
      "outputs": [
        {
          "name": "",
          "type": "string"
        }
      ],
      "payable": false,
      "stateMutability": "view",
      "type": "function"
    },
    {
      "constant": false,
      "inputs": [
        {
          "name": "_to",
          "type": "address"
        }
      ],
      "name": "transferOwnershipForVanityURL",
      "outputs": [],
      "payable": false,
      "stateMutability": "nonpayable",
      "type": "function"
    },
    {
      "constant": false,
      "inputs": [
        {
          "name": "_vanity_url",
          "type": "string"
        }
      ],
      "name": "releaseVanityUrl",
      "outputs": [],
      "payable": false,
      "stateMutability": "nonpayable",
      "type": "function"
    },
    {
      "constant": false,
      "inputs": [
        {
          "name": "_to",
          "type": "address"
        },
        {
          "name": "_vanity_url",
          "type": "string"
        },
        {
          "name": "_springrole_id",
          "type": "string"
        },
        {
          "name": "_data",
          "type": "string"
        }
      ],
      "name": "reserveVanityURLByOwner",
      "outputs": [],
      "payable": false,
      "stateMutability": "nonpayable",
      "type": "function"
    }
  ],
  "bytecode": "0x608060405260008060146101000a81548160ff02191690831515021790555034801561002a57600080fd5b5060405160208061415e83398101806040528101908080519060200190929190505050336000806101000a81548173ffffffffffffffffffffffffffffffffffffffff021916908373ffffffffffffffffffffffffffffffffffffffff16021790555080600160006101000a81548173ffffffffffffffffffffffffffffffffffffffff021916908373ffffffffffffffffffffffffffffffffffffffff16021790555050614080806100de6000396000f3006080604052600436106100c5576000357c0100000000000000000000000000000000000000000000000000000000900463ffffffff1680630c47808d146100ca57806321867fd8146101df5780633f4ba83a14610288578063582295911461029f5780635c975abb1461034e5780635e9d15021461037d578063758822e61461045f5780638456cb59146104e05780638da5cb5b146104f7578063ac53495b1461054e578063b223d2851461060a578063be981ff414610673578063f2fde38b146106b6575b600080fd5b3480156100d657600080fd5b506101dd600480360381019080803573ffffffffffffffffffffffffffffffffffffffff169060200190929190803590602001908201803590602001908080601f0160208091040260200160405190810160405280939291908181526020018383808284378201915050505050509192919290803590602001908201803590602001908080601f0160208091040260200160405190810160405280939291908181526020018383808284378201915050505050509192919290803590602001908201803590602001908080601f01602080910402602001604051908101604052809392919081815260200183838082843782019150505050505091929192905050506106f9565b005b3480156101eb57600080fd5b50610246600480360381019080803590602001908201803590602001908080601f01602080910402602001604051908101604052809392919081815260200183838082843782019150505050505091929192905050506116ae565b604051808273ffffffffffffffffffffffffffffffffffffffff1673ffffffffffffffffffffffffffffffffffffffff16815260200191505060405180910390f35b34801561029457600080fd5b5061029d6117e8565b005b3480156102ab57600080fd5b5061034c600480360381019080803590602001908201803590602001908080601f0160208091040260200160405190810160405280939291908181526020018383808284378201915050505050509192919290803590602001908201803590602001908080601f01602080910402602001604051908101604052809392919081815260200183838082843782019150505050505091929192905050506118a6565b005b34801561035a57600080fd5b50610363612378565b604051808215151515815260200191505060405180910390f35b34801561038957600080fd5b506103e4600480360381019080803590602001908201803590602001908080601f016020809104026020016040519081016040528093929190818152602001838380828437820191505050505050919291929050505061238b565b6040518080602001828103825283818151815260200191508051906020019080838360005b83811015610424578082015181840152602081019050610409565b50505050905090810190601f1680156104515780820380516001836020036101000a031916815260200191505b509250505060405180910390f35b34801561046b57600080fd5b506104c6600480360381019080803590602001908201803590602001908080601f016020809104026020016040519081016040528093929190818152602001838380828437820191505050505050919291929050505061251b565b604051808215151515815260200191505060405180910390f35b3480156104ec57600080fd5b506104f56127f8565b005b34801561050357600080fd5b5061050c6128b8565b604051808273ffffffffffffffffffffffffffffffffffffffff1673ffffffffffffffffffffffffffffffffffffffff16815260200191505060405180910390f35b34801561055a57600080fd5b5061058f600480360381019080803573ffffffffffffffffffffffffffffffffffffffff1690602001909291905050506128dd565b6040518080602001828103825283818151815260200191508051906020019080838360005b838110156105cf5780820151818401526020810190506105b4565b50505050905090810190601f1680156105fc5780820380516001836020036101000a031916815260200191505b509250505060405180910390f35b34801561061657600080fd5b50610671600480360381019080803590602001908201803590602001908080601f0160208091040260200160405190810160405280939291908181526020018383808284378201915050505050509192919290505050612a33565b005b34801561067f57600080fd5b506106b4600480360381019080803573ffffffffffffffffffffffffffffffffffffffff1690602001909291905050506130b4565b005b3480156106c257600080fd5b506106f7600480360381019080803573ffffffffffffffffffffffffffffffffffffffff169060200190929190505050613bcd565b005b600060149054906101000a900460ff1615151561071557600080fd5b6000809054906101000a900473ffffffffffffffffffffffffffffffffffffffff1673ffffffffffffffffffffffffffffffffffffffff163373ffffffffffffffffffffffffffffffffffffffff1614151561077057600080fd5b61077983613d22565b92506107848361251b565b151561078f57600080fd5b600073ffffffffffffffffffffffffffffffffffffffff16600160009054906101000a900473ffffffffffffffffffffffffffffffffffffffff1673ffffffffffffffffffffffffffffffffffffffff166369ba820e856040518263ffffffff167c01000000000000000000000000000000000000000000000000000000000281526004018080602001828103825283818151815260200191508051906020019080838360005b83811015610851578082015181840152602081019050610836565b50505050905090810190601f16801561087e5780820380516001836020036101000a031916815260200191505b5092505050602060405180830381600087803b15801561089d57600080fd5b505af11580156108b1573d6000803e3d6000fd5b505050506040513d60208110156108c757600080fd5b810190808051906020019092919050505073ffffffffffffffffffffffffffffffffffffffff1614151561105d577fa41090171f873981780034276c6b8b839713e8fde71f51ed9ace441c38a91d1e600160009054906101000a900473ffffffffffffffffffffffffffffffffffffffff1673ffffffffffffffffffffffffffffffffffffffff166369ba820e856040518263ffffffff167c01000000000000000000000000000000000000000000000000000000000281526004018080602001828103825283818151815260200191508051906020019080838360005b838110156109c05780820151818401526020810190506109a5565b50505050905090810190601f1680156109ed5780820380516001836020036101000a031916815260200191505b5092505050602060405180830381600087803b158015610a0c57600080fd5b505af1158015610a20573d6000803e3d6000fd5b505050506040513d6020811015610a3657600080fd5b81019080805190602001909291905050508585604051808473ffffffffffffffffffffffffffffffffffffffff1673ffffffffffffffffffffffffffffffffffffffff1681526020018373ffffffffffffffffffffffffffffffffffffffff1673ffffffffffffffffffffffffffffffffffffffff16815260200180602001828103825283818151815260200191508051906020019080838360005b83811015610aed578082015181840152602081019050610ad2565b50505050905090810190601f168015610b1a5780820380516001836020036101000a031916815260200191505b5094505050505060405180910390a1600160009054906101000a900473ffffffffffffffffffffffffffffffffffffffff1673ffffffffffffffffffffffffffffffffffffffff1663efc2c0fd600160009054906101000a900473ffffffffffffffffffffffffffffffffffffffff1673ffffffffffffffffffffffffffffffffffffffff166369ba820e866040518263ffffffff167c01000000000000000000000000000000000000000000000000000000000281526004018080602001828103825283818151815260200191508051906020019080838360005b83811015610c11578082015181840152602081019050610bf6565b50505050905090810190601f168015610c3e5780820380516001836020036101000a031916815260200191505b5092505050602060405180830381600087803b158015610c5d57600080fd5b505af1158015610c71573d6000803e3d6000fd5b505050506040513d6020811015610c8757600080fd5b81019080805190602001909291905050506040518263ffffffff167c0100000000000000000000000000000000000000000000000000000000028152600401808273ffffffffffffffffffffffffffffffffffffffff1673ffffffffffffffffffffffffffffffffffffffff168152602001915050600060405180830381600087803b158015610d1657600080fd5b505af1158015610d2a573d6000803e3d6000fd5b50505050600160009054906101000a900473ffffffffffffffffffffffffffffffffffffffff1673ffffffffffffffffffffffffffffffffffffffff16632c8dc743846040518263ffffffff167c01000000000000000000000000000000000000000000000000000000000281526004018080602001828103825283818151815260200191508051906020019080838360005b83811015610dd8578082015181840152602081019050610dbd565b50505050905090810190601f168015610e055780820380516001836020036101000a031916815260200191505b5092505050600060405180830381600087803b158015610e2457600080fd5b505af1158015610e38573d6000803e3d6000fd5b50505050600160009054906101000a900473ffffffffffffffffffffffffffffffffffffffff1673ffffffffffffffffffffffffffffffffffffffff16635447bd3e846040518263ffffffff167c01000000000000000000000000000000000000000000000000000000000281526004018080602001828103825283818151815260200191508051906020019080838360005b83811015610ee6578082015181840152602081019050610ecb565b50505050905090810190601f168015610f135780820380516001836020036101000a031916815260200191505b5092505050600060405180830381600087803b158015610f3257600080fd5b505af1158015610f46573d6000803e3d6000fd5b50505050600160009054906101000a900473ffffffffffffffffffffffffffffffffffffffff1673ffffffffffffffffffffffffffffffffffffffff16636adafd42846040518263ffffffff167c01000000000000000000000000000000000000000000000000000000000281526004018080602001828103825283818151815260200191508051906020019080838360005b83811015610ff4578082015181840152602081019050610fd9565b50505050905090810190601f1680156110215780820380516001836020036101000a031916815260200191505b5092505050600060405180830381600087803b15801561104057600080fd5b505af1158015611054573d6000803e3d6000fd5b5050505061112e565b7f762ffc42e32a1438e72ead545922b834fbdbb79a0547b358a3418bfe286b25b78484604051808373ffffffffffffffffffffffffffffffffffffffff1673ffffffffffffffffffffffffffffffffffffffff16815260200180602001828103825283818151815260200191508051906020019080838360005b838110156110f25780820151818401526020810190506110d7565b50505050905090810190601f16801561111f5780820380516001836020036101000a031916815260200191505b50935050505060405180910390a15b600160009054906101000a900473ffffffffffffffffffffffffffffffffffffffff1673ffffffffffffffffffffffffffffffffffffffff16630ec552cd85856040518363ffffffff167c0100000000000000000000000000000000000000000000000000000000028152600401808373ffffffffffffffffffffffffffffffffffffffff1673ffffffffffffffffffffffffffffffffffffffff16815260200180602001828103825283818151815260200191508051906020019080838360005b8381101561120b5780820151818401526020810190506111f0565b50505050905090810190601f1680156112385780820380516001836020036101000a031916815260200191505b509350505050600060405180830381600087803b15801561125857600080fd5b505af115801561126c573d6000803e3d6000fd5b50505050600160009054906101000a900473ffffffffffffffffffffffffffffffffffffffff1673ffffffffffffffffffffffffffffffffffffffff1663a477a08c85856040518363ffffffff167c0100000000000000000000000000000000000000000000000000000000028152600401808373ffffffffffffffffffffffffffffffffffffffff1673ffffffffffffffffffffffffffffffffffffffff16815260200180602001828103825283818151815260200191508051906020019080838360005b8381101561134d578082015181840152602081019050611332565b50505050905090810190601f16801561137a5780820380516001836020036101000a031916815260200191505b509350505050600060405180830381600087803b15801561139a57600080fd5b505af11580156113ae573d6000803e3d6000fd5b50505050600160009054906101000a900473ffffffffffffffffffffffffffffffffffffffff1673ffffffffffffffffffffffffffffffffffffffff1663208b648584846040518363ffffffff167c0100000000000000000000000000000000000000000000000000000000028152600401808060200180602001838103835285818151815260200191508051906020019080838360005b83811015611461578082015181840152602081019050611446565b50505050905090810190601f16801561148e5780820380516001836020036101000a031916815260200191505b50838103825284818151815260200191508051906020019080838360005b838110156114c75780820151818401526020810190506114ac565b50505050905090810190601f1680156114f45780820380516001836020036101000a031916815260200191505b50945050505050600060405180830381600087803b15801561151557600080fd5b505af1158015611529573d6000803e3d6000fd5b50505050600160009054906101000a900473ffffffffffffffffffffffffffffffffffffffff1673ffffffffffffffffffffffffffffffffffffffff1663f72aaa3e83856040518363ffffffff167c0100000000000000000000000000000000000000000000000000000000028152600401808060200180602001838103835285818151815260200191508051906020019080838360005b838110156115dc5780820151818401526020810190506115c1565b50505050905090810190601f1680156116095780820380516001836020036101000a031916815260200191505b50838103825284818151815260200191508051906020019080838360005b83811015611642578082015181840152602081019050611627565b50505050905090810190601f16801561166f5780820380516001836020036101000a031916815260200191505b50945050505050600060405180830381600087803b15801561169057600080fd5b505af11580156116a4573d6000803e3d6000fd5b5050505050505050565b6000600160009054906101000a900473ffffffffffffffffffffffffffffffffffffffff1673ffffffffffffffffffffffffffffffffffffffff166369ba820e836040518263ffffffff167c01000000000000000000000000000000000000000000000000000000000281526004018080602001828103825283818151815260200191508051906020019080838360005b8381101561175a57808201518184015260208101905061173f565b50505050905090810190601f1680156117875780820380516001836020036101000a031916815260200191505b5092505050602060405180830381600087803b1580156117a657600080fd5b505af11580156117ba573d6000803e3d6000fd5b505050506040513d60208110156117d057600080fd5b81019080805190602001909291905050509050919050565b6000809054906101000a900473ffffffffffffffffffffffffffffffffffffffff1673ffffffffffffffffffffffffffffffffffffffff163373ffffffffffffffffffffffffffffffffffffffff1614151561184357600080fd5b600060149054906101000a900460ff16151561185e57600080fd5b60008060146101000a81548160ff0219169083151502179055507f7805862f689e2f13df9f062ff482ad3ad112aca9e0847911ed832e158c525b3360405160405180910390a1565b600060149054906101000a900460ff161515156118c257600080fd5b6118cb82613d22565b9150600073ffffffffffffffffffffffffffffffffffffffff16600160009054906101000a900473ffffffffffffffffffffffffffffffffffffffff1673ffffffffffffffffffffffffffffffffffffffff166369ba820e846040518263ffffffff167c01000000000000000000000000000000000000000000000000000000000281526004018080602001828103825283818151815260200191508051906020019080838360005b8381101561198f578082015181840152602081019050611974565b50505050905090810190601f1680156119bc5780820380516001836020036101000a031916815260200191505b5092505050602060405180830381600087803b1580156119db57600080fd5b505af11580156119ef573d6000803e3d6000fd5b505050506040513d6020811015611a0557600080fd5b810190808051906020019092919050505073ffffffffffffffffffffffffffffffffffffffff16141515611a3857600080fd5b6000600160009054906101000a900473ffffffffffffffffffffffffffffffffffffffff1673ffffffffffffffffffffffffffffffffffffffff1662eaedc8336040518263ffffffff167c0100000000000000000000000000000000000000000000000000000000028152600401808273ffffffffffffffffffffffffffffffffffffffff1673ffffffffffffffffffffffffffffffffffffffff168152602001915050600060405180830381600087803b158015611af657600080fd5b505af1158015611b0a573d6000803e3d6000fd5b505050506040513d6000823e3d601f19601f820116820180604052506020811015611b3457600080fd5b810190808051640100000000811115611b4c57600080fd5b82810190506020810184811115611b6257600080fd5b8151856001820283011164010000000082111715611b7f57600080fd5b505092919050505051141515611b9457600080fd5b6000600160009054906101000a900473ffffffffffffffffffffffffffffffffffffffff1673ffffffffffffffffffffffffffffffffffffffff1663a3e5c431836040518263ffffffff167c01000000000000000000000000000000000000000000000000000000000281526004018080602001828103825283818151815260200191508051906020019080838360005b83811015611c40578082015181840152602081019050611c25565b50505050905090810190601f168015611c6d5780820380516001836020036101000a031916815260200191505b5092505050600060405180830381600087803b158015611c8c57600080fd5b505af1158015611ca0573d6000803e3d6000fd5b505050506040513d6000823e3d601f19601f820116820180604052506020811015611cca57600080fd5b810190808051640100000000811115611ce257600080fd5b82810190506020810184811115611cf857600080fd5b8151856001820283011164010000000082111715611d1557600080fd5b505092919050505051141515611d2a57600080fd5b600160009054906101000a900473ffffffffffffffffffffffffffffffffffffffff1673ffffffffffffffffffffffffffffffffffffffff16630ec552cd33846040518363ffffffff167c0100000000000000000000000000000000000000000000000000000000028152600401808373ffffffffffffffffffffffffffffffffffffffff1673ffffffffffffffffffffffffffffffffffffffff16815260200180602001828103825283818151815260200191508051906020019080838360005b83811015611e07578082015181840152602081019050611dec565b50505050905090810190601f168015611e345780820380516001836020036101000a031916815260200191505b509350505050600060405180830381600087803b158015611e5457600080fd5b505af1158015611e68573d6000803e3d6000fd5b50505050600160009054906101000a900473ffffffffffffffffffffffffffffffffffffffff1673ffffffffffffffffffffffffffffffffffffffff1663208b648583836040518363ffffffff167c0100000000000000000000000000000000000000000000000000000000028152600401808060200180602001838103835285818151815260200191508051906020019080838360005b83811015611f1b578082015181840152602081019050611f00565b50505050905090810190601f168015611f485780820380516001836020036101000a031916815260200191505b50838103825284818151815260200191508051906020019080838360005b83811015611f81578082015181840152602081019050611f66565b50505050905090810190601f168015611fae5780820380516001836020036101000a031916815260200191505b50945050505050600060405180830381600087803b158015611fcf57600080fd5b505af1158015611fe3573d6000803e3d6000fd5b50505050600160009054906101000a900473ffffffffffffffffffffffffffffffffffffffff1673ffffffffffffffffffffffffffffffffffffffff1663f72aaa3e82846040518363ffffffff167c0100000000000000000000000000000000000000000000000000000000028152600401808060200180602001838103835285818151815260200191508051906020019080838360005b8381101561209657808201518184015260208101905061207b565b50505050905090810190601f1680156120c35780820380516001836020036101000a031916815260200191505b50838103825284818151815260200191508051906020019080838360005b838110156120fc5780820151818401526020810190506120e1565b50505050905090810190601f1680156121295780820380516001836020036101000a031916815260200191505b50945050505050600060405180830381600087803b15801561214a57600080fd5b505af115801561215e573d6000803e3d6000fd5b50505050600160009054906101000a900473ffffffffffffffffffffffffffffffffffffffff1673ffffffffffffffffffffffffffffffffffffffff1663a477a08c33846040518363ffffffff167c0100000000000000000000000000000000000000000000000000000000028152600401808373ffffffffffffffffffffffffffffffffffffffff1673ffffffffffffffffffffffffffffffffffffffff16815260200180602001828103825283818151815260200191508051906020019080838360005b8381101561223f578082015181840152602081019050612224565b50505050905090810190601f16801561226c5780820380516001836020036101000a031916815260200191505b509350505050600060405180830381600087803b15801561228c57600080fd5b505af11580156122a0573d6000803e3d6000fd5b505050507f762ffc42e32a1438e72ead545922b834fbdbb79a0547b358a3418bfe286b25b73383604051808373ffffffffffffffffffffffffffffffffffffffff1673ffffffffffffffffffffffffffffffffffffffff16815260200180602001828103825283818151815260200191508051906020019080838360005b8381101561233957808201518184015260208101905061231e565b50505050905090810190601f1680156123665780820380516001836020036101000a031916815260200191505b50935050505060405180910390a15050565b600060149054906101000a900460ff1681565b6060600160009054906101000a900473ffffffffffffffffffffffffffffffffffffffff1673ffffffffffffffffffffffffffffffffffffffff166303547514836040518263ffffffff167c01000000000000000000000000000000000000000000000000000000000281526004018080602001828103825283818151815260200191508051906020019080838360005b8381101561243757808201518184015260208101905061241c565b50505050905090810190601f1680156124645780820380516001836020036101000a031916815260200191505b5092505050600060405180830381600087803b15801561248357600080fd5b505af1158015612497573d6000803e3d6000fd5b505050506040513d6000823e3d601f19601f8201168201806040525060208110156124c157600080fd5b8101908080516401000000008111156124d957600080fd5b828101905060208101848111156124ef57600080fd5b815185600182028301116401000000008211171561250c57600080fd5b50509291905050509050919050565b6000806000808451925060048310158015612537575060c88311155b151561254257600080fd5b600091505b828210156127eb57848281518110151561255d57fe5b9060200101517f010000000000000000000000000000000000000000000000000000000000000090047f010000000000000000000000000000000000000000000000000000000000000002905060307f010000000000000000000000000000000000000000000000000000000000000002817effffffffffffffffffffffffffffffffffffffffffffffffffffffffffffff191610806126415750607a7f010000000000000000000000000000000000000000000000000000000000000002817effffffffffffffffffffffffffffffffffffffffffffffffffffffffffffff1916115b806126e0575060397f010000000000000000000000000000000000000000000000000000000000000002817effffffffffffffffffffffffffffffffffffffffffffffffffffffffffffff19161180156126df575060417f010000000000000000000000000000000000000000000000000000000000000002817effffffffffffffffffffffffffffffffffffffffffffffffffffffffffffff1916105b5b8061277f5750605a7f010000000000000000000000000000000000000000000000000000000000000002817effffffffffffffffffffffffffffffffffffffffffffffffffffffffffffff191611801561277e575060617f010000000000000000000000000000000000000000000000000000000000000002817effffffffffffffffffffffffffffffffffffffffffffffffffffffffffffff1916105b5b80156127d05750605f7f010000000000000000000000000000000000000000000000000000000000000002817effffffffffffffffffffffffffffffffffffffffffffffffffffffffffffff191614155b156127de57600093506127f0565b8180600101925050612547565b600193505b505050919050565b6000809054906101000a900473ffffffffffffffffffffffffffffffffffffffff1673ffffffffffffffffffffffffffffffffffffffff163373ffffffffffffffffffffffffffffffffffffffff1614151561285357600080fd5b600060149054906101000a900460ff1615151561286f57600080fd5b6001600060146101000a81548160ff0219169083151502179055507f6985a02210a168e66602d3235cb6db0e70f92b3ba4d376a33c0f3d9434bff62560405160405180910390a1565b6000809054906101000a900473ffffffffffffffffffffffffffffffffffffffff1681565b6060600160009054906101000a900473ffffffffffffffffffffffffffffffffffffffff1673ffffffffffffffffffffffffffffffffffffffff1662eaedc8836040518263ffffffff167c0100000000000000000000000000000000000000000000000000000000028152600401808273ffffffffffffffffffffffffffffffffffffffff1673ffffffffffffffffffffffffffffffffffffffff168152602001915050600060405180830381600087803b15801561299b57600080fd5b505af11580156129af573d6000803e3d6000fd5b505050506040513d6000823e3d601f19601f8201168201806040525060208110156129d957600080fd5b8101908080516401000000008111156129f157600080fd5b82810190506020810184811115612a0757600080fd5b8151856001820283011164010000000082111715612a2457600080fd5b50509291905050509050919050565b600060149054906101000a900460ff16151515612a4f57600080fd5b6000809054906101000a900473ffffffffffffffffffffffffffffffffffffffff1673ffffffffffffffffffffffffffffffffffffffff163373ffffffffffffffffffffffffffffffffffffffff16141515612aaa57600080fd5b600073ffffffffffffffffffffffffffffffffffffffff16600160009054906101000a900473ffffffffffffffffffffffffffffffffffffffff1673ffffffffffffffffffffffffffffffffffffffff166369ba820e836040518263ffffffff167c01000000000000000000000000000000000000000000000000000000000281526004018080602001828103825283818151815260200191508051906020019080838360005b83811015612b6c578082015181840152602081019050612b51565b50505050905090810190601f168015612b995780820380516001836020036101000a031916815260200191505b5092505050602060405180830381600087803b158015612bb857600080fd5b505af1158015612bcc573d6000803e3d6000fd5b505050506040513d6020811015612be257600080fd5b810190808051906020019092919050505073ffffffffffffffffffffffffffffffffffffffff1614151515612c1657600080fd5b600160009054906101000a900473ffffffffffffffffffffffffffffffffffffffff1673ffffffffffffffffffffffffffffffffffffffff1663efc2c0fd336040518263ffffffff167c0100000000000000000000000000000000000000000000000000000000028152600401808273ffffffffffffffffffffffffffffffffffffffff1673ffffffffffffffffffffffffffffffffffffffff168152602001915050600060405180830381600087803b158015612cd357600080fd5b505af1158015612ce7573d6000803e3d6000fd5b50505050600160009054906101000a900473ffffffffffffffffffffffffffffffffffffffff1673ffffffffffffffffffffffffffffffffffffffff16632c8dc743826040518263ffffffff167c01000000000000000000000000000000000000000000000000000000000281526004018080602001828103825283818151815260200191508051906020019080838360005b83811015612d95578082015181840152602081019050612d7a565b50505050905090810190601f168015612dc25780820380516001836020036101000a031916815260200191505b5092505050600060405180830381600087803b158015612de157600080fd5b505af1158015612df5573d6000803e3d6000fd5b50505050600160009054906101000a900473ffffffffffffffffffffffffffffffffffffffff1673ffffffffffffffffffffffffffffffffffffffff16636adafd42826040518263ffffffff167c01000000000000000000000000000000000000000000000000000000000281526004018080602001828103825283818151815260200191508051906020019080838360005b83811015612ea3578082015181840152602081019050612e88565b50505050905090810190601f168015612ed05780820380516001836020036101000a031916815260200191505b5092505050600060405180830381600087803b158015612eef57600080fd5b505af1158015612f03573d6000803e3d6000fd5b50505050600160009054906101000a900473ffffffffffffffffffffffffffffffffffffffff1673ffffffffffffffffffffffffffffffffffffffff16635447bd3e826040518263ffffffff167c01000000000000000000000000000000000000000000000000000000000281526004018080602001828103825283818151815260200191508051906020019080838360005b83811015612fb1578082015181840152602081019050612f96565b50505050905090810190601f168015612fde5780820380516001836020036101000a031916815260200191505b5092505050600060405180830381600087803b158015612ffd57600080fd5b505af1158015613011573d6000803e3d6000fd5b505050507f41ce979d159b3eb8eb7e4326b900bf729ba92dc57fc0c90eb976a136b17bd13f816040518080602001828103825283818151815260200191508051906020019080838360005b8381101561307757808201518184015260208101905061305c565b50505050905090810190601f1680156130a45780820380516001836020036101000a031916815260200191505b509250505060405180910390a150565b600060149054906101000a900460ff161515156130d057600080fd5b6000600160009054906101000a900473ffffffffffffffffffffffffffffffffffffffff1673ffffffffffffffffffffffffffffffffffffffff1662eaedc8836040518263ffffffff167c0100000000000000000000000000000000000000000000000000000000028152600401808273ffffffffffffffffffffffffffffffffffffffff1673ffffffffffffffffffffffffffffffffffffffff168152602001915050600060405180830381600087803b15801561318e57600080fd5b505af11580156131a2573d6000803e3d6000fd5b505050506040513d6000823e3d601f19601f8201168201806040525060208110156131cc57600080fd5b8101908080516401000000008111156131e457600080fd5b828101905060208101848111156131fa57600080fd5b815185600182028301116401000000008211171561321757600080fd5b50509291905050505114151561322c57600080fd5b6000600160009054906101000a900473ffffffffffffffffffffffffffffffffffffffff1673ffffffffffffffffffffffffffffffffffffffff1662eaedc8336040518263ffffffff167c0100000000000000000000000000000000000000000000000000000000028152600401808273ffffffffffffffffffffffffffffffffffffffff1673ffffffffffffffffffffffffffffffffffffffff168152602001915050600060405180830381600087803b1580156132ea57600080fd5b505af11580156132fe573d6000803e3d6000fd5b505050506040513d6000823e3d601f19601f82011682018060405250602081101561332857600080fd5b81019080805164010000000081111561334057600080fd5b8281019050602081018481111561335657600080fd5b815185600182028301116401000000008211171561337357600080fd5b5050929190505050511415151561338957600080fd5b600160009054906101000a900473ffffffffffffffffffffffffffffffffffffffff1673ffffffffffffffffffffffffffffffffffffffff1663a477a08c82600160009054906101000a900473ffffffffffffffffffffffffffffffffffffffff1673ffffffffffffffffffffffffffffffffffffffff1662eaedc8336040518263ffffffff167c0100000000000000000000000000000000000000000000000000000000028152600401808273ffffffffffffffffffffffffffffffffffffffff1673ffffffffffffffffffffffffffffffffffffffff168152602001915050600060405180830381600087803b15801561348457600080fd5b505af1158015613498573d6000803e3d6000fd5b505050506040513d6000823e3d601f19601f8201168201806040525060208110156134c257600080fd5b8101908080516401000000008111156134da57600080fd5b828101905060208101848111156134f057600080fd5b815185600182028301116401000000008211171561350d57600080fd5b50509291905050506040518363ffffffff167c0100000000000000000000000000000000000000000000000000000000028152600401808373ffffffffffffffffffffffffffffffffffffffff1673ffffffffffffffffffffffffffffffffffffffff16815260200180602001828103825283818151815260200191508051906020019080838360005b838110156135b2578082015181840152602081019050613597565b50505050905090810190601f1680156135df5780820380516001836020036101000a031916815260200191505b509350505050600060405180830381600087803b1580156135ff57600080fd5b505af1158015613613573d6000803e3d6000fd5b50505050600160009054906101000a900473ffffffffffffffffffffffffffffffffffffffff1673ffffffffffffffffffffffffffffffffffffffff16630ec552cd82600160009054906101000a900473ffffffffffffffffffffffffffffffffffffffff1673ffffffffffffffffffffffffffffffffffffffff1662eaedc8336040518263ffffffff167c0100000000000000000000000000000000000000000000000000000000028152600401808273ffffffffffffffffffffffffffffffffffffffff1673ffffffffffffffffffffffffffffffffffffffff168152602001915050600060405180830381600087803b15801561371257600080fd5b505af1158015613726573d6000803e3d6000fd5b505050506040513d6000823e3d601f19601f82011682018060405250602081101561375057600080fd5b81019080805164010000000081111561376857600080fd5b8281019050602081018481111561377e57600080fd5b815185600182028301116401000000008211171561379b57600080fd5b50509291905050506040518363ffffffff167c0100000000000000000000000000000000000000000000000000000000028152600401808373ffffffffffffffffffffffffffffffffffffffff1673ffffffffffffffffffffffffffffffffffffffff16815260200180602001828103825283818151815260200191508051906020019080838360005b83811015613840578082015181840152602081019050613825565b50505050905090810190601f16801561386d5780820380516001836020036101000a031916815260200191505b509350505050600060405180830381600087803b15801561388d57600080fd5b505af11580156138a1573d6000803e3d6000fd5b505050507fa41090171f873981780034276c6b8b839713e8fde71f51ed9ace441c38a91d1e3382600160009054906101000a900473ffffffffffffffffffffffffffffffffffffffff1673ffffffffffffffffffffffffffffffffffffffff1662eaedc8856040518263ffffffff167c0100000000000000000000000000000000000000000000000000000000028152600401808273ffffffffffffffffffffffffffffffffffffffff1673ffffffffffffffffffffffffffffffffffffffff168152602001915050600060405180830381600087803b15801561398457600080fd5b505af1158015613998573d6000803e3d6000fd5b505050506040513d6000823e3d601f19601f8201168201806040525060208110156139c257600080fd5b8101908080516401000000008111156139da57600080fd5b828101905060208101848111156139f057600080fd5b8151856001820283011164010000000082111715613a0d57600080fd5b5050929190505050604051808473ffffffffffffffffffffffffffffffffffffffff1673ffffffffffffffffffffffffffffffffffffffff1681526020018373ffffffffffffffffffffffffffffffffffffffff1673ffffffffffffffffffffffffffffffffffffffff16815260200180602001828103825283818151815260200191508051906020019080838360005b83811015613ab9578082015181840152602081019050613a9e565b50505050905090810190601f168015613ae65780820380516001836020036101000a031916815260200191505b5094505050505060405180910390a1600160009054906101000a900473ffffffffffffffffffffffffffffffffffffffff1673ffffffffffffffffffffffffffffffffffffffff1663efc2c0fd336040518263ffffffff167c0100000000000000000000000000000000000000000000000000000000028152600401808273ffffffffffffffffffffffffffffffffffffffff1673ffffffffffffffffffffffffffffffffffffffff168152602001915050600060405180830381600087803b158015613bb257600080fd5b505af1158015613bc6573d6000803e3d6000fd5b5050505050565b6000809054906101000a900473ffffffffffffffffffffffffffffffffffffffff1673ffffffffffffffffffffffffffffffffffffffff163373ffffffffffffffffffffffffffffffffffffffff16141515613c2857600080fd5b600073ffffffffffffffffffffffffffffffffffffffff168173ffffffffffffffffffffffffffffffffffffffff1614151515613c6457600080fd5b8073ffffffffffffffffffffffffffffffffffffffff166000809054906101000a900473ffffffffffffffffffffffffffffffffffffffff1673ffffffffffffffffffffffffffffffffffffffff167f8be0079c531659141344cd1fd0a4f28419497f9722a3daafe3b4186f6b6457e060405160405180910390a3806000806101000a81548173ffffffffffffffffffffffffffffffffffffffff021916908373ffffffffffffffffffffffffffffffffffffffff16021790555050565b6060806060600084925082516040519080825280601f01601f191660200182016040528015613d605781602001602082028038833980820191505090505b509150600090505b82518110156140495760417f0100000000000000000000000000000000000000000000000000000000000000028382815181101515613da357fe5b9060200101517f010000000000000000000000000000000000000000000000000000000000000090047f0100000000000000000000000000000000000000000000000000000000000000027effffffffffffffffffffffffffffffffffffffffffffffffffffffffffffff191610158015613ebb5750605a7f0100000000000000000000000000000000000000000000000000000000000000028382815181101515613e4b57fe5b9060200101517f010000000000000000000000000000000000000000000000000000000000000090047f0100000000000000000000000000000000000000000000000000000000000000027effffffffffffffffffffffffffffffffffffffffffffffffffffffffffffff191611155b15613fa45760208382815181101515613ed057fe5b9060200101517f010000000000000000000000000000000000000000000000000000000000000090047f0100000000000000000000000000000000000000000000000000000000000000027f01000000000000000000000000000000000000000000000000000000000000009004017f0100000000000000000000000000000000000000000000000000000000000000028282815181101515613f6f57fe5b9060200101907effffffffffffffffffffffffffffffffffffffffffffffffffffffffffffff1916908160001a90535061403c565b8281815181101515613fb257fe5b9060200101517f010000000000000000000000000000000000000000000000000000000000000090047f010000000000000000000000000000000000000000000000000000000000000002828281518110151561400b57fe5b9060200101907effffffffffffffffffffffffffffffffffffffffffffffffffffffffffffff1916908160001a9053505b8080600101915050613d68565b8193505050509190505600a165627a7a7230582064b20e0f699e64d66f4e07693069e8e1632de39f018cd0cd80465bf4a8b791710029",
  "source": "pragma solidity ^0.4.19;\nimport \"./VanityStorage.sol\";\n/* The upgradable version of vanityURL contract*/\n\n/**\n* Contract for Vanity URL on SpringRole\n* This one is the upgradable contract\n* Go to beta.springrole.com to try this out!\n*/\n\n/**\n * @title Ownable\n * @dev The Ownable contract has an owner address, and provides basic authorization control\n * functions, this simplifies the implementation of user permissions.\n */\n\ncontract Ownable {\n  address public owner;\n\n\n  event OwnershipTransferred(address indexed previousOwner, address indexed newOwner);\n\n  /**\n   * @dev The Ownable constructor sets the original `owner` of the contract to the sender\n   * account.\n   */\n  function Ownable() {\n    owner = msg.sender;\n  }\n\n\n  /**\n   * @dev Throws if called by any account other than the owner.\n   */\n  modifier onlyOwner() {\n    require(msg.sender == owner);\n    _;\n  }\n   /**\n   * @dev Allows the current owner to transfer control of the contract to a newOwner.\n   * newOwner The address to transfer ownership to.\n   */\n  function transferOwnership(address newOwner) onlyOwner public {\n    require(newOwner != address(0));\n    OwnershipTransferred(owner, newOwner);\n    owner = newOwner;\n  }\n}\n/**\n * @title Pausable\n * @dev Base contract which allows children to implement an emergency stop mechanism.\n */\n\ncontract Pausable is Ownable {\n  event Pause();\n  event Unpause();\n\n  bool public paused = false;\n\n\n  /**\n   * @dev Modifier to make a function callable only when the contract is not paused.\n   */\n  modifier whenNotPaused() {\n    require(!paused);\n    _;\n  }\n\n  /**\n   * @dev Modifier to make a function callable only when the contract is paused.\n   */\n  modifier whenPaused() {\n    require(paused);\n    _;\n  }\n\n  /**\n   * @dev called by the owner to pause, triggers stopped state\n   */\n  function pause() onlyOwner whenNotPaused public {\n    paused = true;\n    Pause();\n  }\n\n  /**\n   * @dev called by the owner to unpause, returns to normal state\n   */\n  function unpause() onlyOwner whenPaused public {\n    paused = false;\n    Unpause();\n  }\n}\n/**\n * @title VanityURL\n * @dev The VanityURL contract provides functionality to reserve vanity URLs.\n   The address of the vanity storage contract\n * Go to https://beta.springrole.com to reserve.\n */\ncontract VanityURL_Upgrade is Ownable,Pausable {\n  VanityStorage vanityStorageaddr;\n   \n  event VanityReserved(address _to, string _vanity_url);\n  event VanityTransfered(address _to,address _from, string _vanity_url);\n  event VanityReleased(string _vanity_url);\n\n  //constructor\n  //The address of vanity storage address\n     function VanityURL_Upgrade(address vanity_store) {\n         vanityStorageaddr=VanityStorage(vanity_store);\n     }\n  \n  /*\n    function to reserve vanityURL\n    1. Checks if vanity is check is valid\n    2. Checks if address has already a vanity url\n    3. check if vanity url is used by any other or not\n    4. Check if vanity url is present in any other spingrole id\n    5. Transfer the token\n    6. Update the mapping variables\n  */\n  function reserve(string _vanity_url,string _springrole_id) whenNotPaused public {\n    _vanity_url = _toLower(_vanity_url);\n    require(vanityStorageaddr.retrieveWalletForVanity(_vanity_url)==address(0x0));\n    require(bytes(vanityStorageaddr.retrieveVanityForWallet(msg.sender)).length == 0);\n    require(bytes(vanityStorageaddr.retrieveVanityForSpringroleId(_springrole_id)).length == 0);\n    /* adding to vanity address mapping */\n    vanityStorageaddr.setWalletForVanity(msg.sender,_vanity_url);\n    /* adding to vanity springrole id mapping */\n    vanityStorageaddr.setSpringroleIdForVanity(_vanity_url,_springrole_id);\n    /* adding to springrole id vanity mapping */\n    vanityStorageaddr.setVanityForSpringroleId(_springrole_id,_vanity_url);\n    /* adding to address vanity mapping */\n    vanityStorageaddr.setVanityForWallet(msg.sender,_vanity_url);\n    VanityReserved(msg.sender, _vanity_url);\n  }\n    /*\n  function to make lowercase\n  */\n\n  function _toLower(string str) internal returns (string) {\n\t\tbytes memory bStr = bytes(str);\n\t\tbytes memory bLower = new bytes(bStr.length);\n\t\tfor (uint i = 0; i < bStr.length; i++) {\n\t\t\t// Uppercase character...\n\t\t\tif ((bStr[i] >= 65) && (bStr[i] <= 90)) {\n\t\t\t\t// So we add 32 to make it lowercase\n\t\t\t\tbLower[i] = bytes1(int(bStr[i]) + 32);\n\t\t\t} else {\n\t\t\t\tbLower[i] = bStr[i];\n\t\t\t}\n\t\t}\n\t\treturn string(bLower);\n\t}\n /*\n  function to verify vanityURL\n  1. Minimum length 4\n  2.Maximum lenght 200\n  3.Vanity url is only alphanumeric\n   */\n  function checkForValidity(string _vanity_url) returns (bool) {\n    uint length =  bytes(_vanity_url).length;\n    require(length >= 4 && length <= 200);\n    for (uint i =0; i< length; i++) {\n      var c = bytes(_vanity_url)[i];\n      if ((c < 48 ||  c > 122 || (c > 57 && c < 65) || (c > 90 && c < 97 )) && (c != 95))\n        return false;\n    }\n    return true;\n  }\n  //this is to retreive wallet address\n  function retrieveWallet(string vanity) constant public returns(address) {\n   return vanityStorageaddr.retrieveWalletForVanity(vanity);\n  }\n  //this is to retriev the spring_role_id from storage\n  function retrieveSpringId(string vanity) constant public returns(string) {\n    return vanityStorageaddr.retrieveSpringroleIdForVanity(vanity);\n  }\n  //this is to retrive vanity from wallet\n  function retrieveVanity(address _address) constant public returns(string) {\n    return vanityStorageaddr.retrieveVanityForWallet(_address);\n  }\n   /*\n  function to transfer ownership for Vanity URL\n  */\n  function transferOwnershipForVanityURL(address _to) whenNotPaused public {\n    require(bytes(vanityStorageaddr.retrieveVanityForWallet(_to)).length == 0);\n    require(bytes(vanityStorageaddr.retrieveVanityForWallet(msg.sender)).length != 0);\n    vanityStorageaddr.setVanityForWallet(_to,string(vanityStorageaddr.retrieveVanityForWallet(msg.sender)));\n    vanityStorageaddr.setWalletForVanity(_to,string(vanityStorageaddr.retrieveVanityForWallet(msg.sender)));\n    //vanity_address_mapping[address_vanity_mapping[msg.sender]] = _to;\n    VanityTransfered(msg.sender,_to,string(vanityStorageaddr.retrieveVanityForWallet(_to)));\n    vanityStorageaddr.deleteWalletVanityMapping(msg.sender);\n  }\n  /*\n     To release vanity by owner\n  */\n  function releaseVanityUrl(string _vanity_url) whenNotPaused onlyOwner public {\n    require(vanityStorageaddr.retrieveWalletForVanity(_vanity_url)!=address(0x0));\n    /* delete from address mapping */\n    vanityStorageaddr.deleteWalletVanityMapping(msg.sender);\n    /* delete from vanity mapping */\n    vanityStorageaddr.deleteVanityWalletMapping(_vanity_url);\n    /* delete from springrole id vanity mapping */\n    vanityStorageaddr.deleteSpringVanityMapping(_vanity_url);\n    /* delete from vanity springrole id mapping */\n    vanityStorageaddr.deleteVanitySpringMapping(_vanity_url);\n    /* sending VanityReleased event */\n    VanityReleased(_vanity_url);\n  }\n  /*\n  function to transfer ownership for Vanity URL by Owner (Upgraded function)\n  */\n  function reserveVanityURLByOwner(address _to,string _vanity_url,string _springrole_id,string _data) whenNotPaused onlyOwner public {\n      _vanity_url = _toLower(_vanity_url);\n      require(checkForValidity(_vanity_url));\n      /* check if vanity url is being used by anyone */\n      if(vanityStorageaddr.retrieveWalletForVanity(_vanity_url)  != address(0x0))\n      {\n        /* Sending Vanity Transfered Event */\n        VanityTransfered(vanityStorageaddr.retrieveWalletForVanity(_vanity_url),_to,_vanity_url);\n        /* delete from address mapping */\n        vanityStorageaddr.deleteWalletVanityMapping(vanityStorageaddr.retrieveWalletForVanity(_vanity_url));\n        /* delete from vanity mapping */\n        vanityStorageaddr.deleteVanityWalletMapping(_vanity_url);\n        /* delete from springrole id vanity mapping */\n        vanityStorageaddr.deleteVanitySpringMapping(_vanity_url);\n        /* delete from vanity springrole id mapping */\n        vanityStorageaddr.deleteSpringVanityMapping(_vanity_url);\n      }\n      else\n      {\n        /* sending VanityReserved event */\n        VanityReserved(_to, _vanity_url);\n      }\n      /* add new address to mapping */\n      vanityStorageaddr.setWalletForVanity(_to,_vanity_url);\n      vanityStorageaddr.setVanityForWallet(_to,_vanity_url);\n      vanityStorageaddr.setSpringroleIdForVanity(_vanity_url,_springrole_id);\n      vanityStorageaddr.setVanityForSpringroleId(_springrole_id,_vanity_url);\n  }\n}",
  "sourcePath": "/Users/pulkit29/Documents/smart-contracts/contracts/VanityURL_Upgrade.sol",
  "compiler": {
    "name": "solc",
    "version": "0.4.23+commit.124ca40d.Emscripten.clang"
  },
  "schemaVersion": "2.0.0",
  "updatedAt": "2018-06-26T11:04:27.299Z"
}