{
  "contractName": "VanityURL",
  "abi": [
    {
      "constant": false,
      "inputs": [],
      "name": "unpause",
      "outputs": [],
      "payable": false,
      "stateMutability": "nonpayable",
      "type": "function"
    },
    {
      "constant": true,
      "inputs": [],
      "name": "paused",
      "outputs": [
        {
          "name": "",
          "type": "bool"
        }
      ],
      "payable": false,
      "stateMutability": "view",
      "type": "function"
    },
    {
      "constant": false,
      "inputs": [],
      "name": "pause",
      "outputs": [],
      "payable": false,
      "stateMutability": "nonpayable",
      "type": "function"
    },
    {
      "constant": true,
      "inputs": [],
      "name": "owner",
      "outputs": [
        {
          "name": "",
          "type": "address"
        }
      ],
      "payable": false,
      "stateMutability": "view",
      "type": "function"
    },
    {
      "constant": false,
      "inputs": [
        {
          "name": "newOwner",
          "type": "address"
        }
      ],
      "name": "transferOwnership",
      "outputs": [],
      "payable": false,
      "stateMutability": "nonpayable",
      "type": "function"
    },
    {
      "inputs": [],
      "payable": false,
      "stateMutability": "nonpayable",
      "type": "constructor"
    },
    {
      "payable": true,
      "stateMutability": "payable",
      "type": "fallback"
    },
    {
      "anonymous": false,
      "inputs": [
        {
          "indexed": false,
          "name": "_to",
          "type": "address"
        },
        {
          "indexed": false,
          "name": "_vanity_url",
          "type": "string"
        }
      ],
      "name": "VanityReserved",
      "type": "event"
    },
    {
      "anonymous": false,
      "inputs": [
        {
          "indexed": false,
          "name": "_to",
          "type": "address"
        },
        {
          "indexed": false,
          "name": "_from",
          "type": "address"
        },
        {
          "indexed": false,
          "name": "_vanity_url",
          "type": "string"
        }
      ],
      "name": "VanityTransfered",
      "type": "event"
    },
    {
      "anonymous": false,
      "inputs": [
        {
          "indexed": false,
          "name": "_vanity_url",
          "type": "string"
        }
      ],
      "name": "VanityReleased",
      "type": "event"
    },
    {
      "anonymous": false,
      "inputs": [],
      "name": "Pause",
      "type": "event"
    },
    {
      "anonymous": false,
      "inputs": [],
      "name": "Unpause",
      "type": "event"
    },
    {
      "anonymous": false,
      "inputs": [
        {
          "indexed": true,
          "name": "previousOwner",
          "type": "address"
        },
        {
          "indexed": true,
          "name": "newOwner",
          "type": "address"
        }
      ],
      "name": "OwnershipTransferred",
      "type": "event"
    },
    {
      "constant": true,
      "inputs": [
        {
          "name": "_vanity_url",
          "type": "string"
        }
      ],
      "name": "retrieveWalletForVanity",
      "outputs": [
        {
          "name": "",
          "type": "address"
        }
      ],
      "payable": false,
      "stateMutability": "view",
      "type": "function"
    },
    {
      "constant": true,
      "inputs": [
        {
          "name": "_address",
          "type": "address"
        }
      ],
      "name": "retrieveVanityForWallet",
      "outputs": [
        {
          "name": "",
          "type": "string"
        }
      ],
      "payable": false,
      "stateMutability": "view",
      "type": "function"
    },
    {
      "constant": true,
      "inputs": [
        {
          "name": "_vanity_url",
          "type": "string"
        }
      ],
      "name": "retrieveSpringroleIdForVanity",
      "outputs": [
        {
          "name": "",
          "type": "string"
        }
      ],
      "payable": false,
      "stateMutability": "view",
      "type": "function"
    },
    {
      "constant": true,
      "inputs": [
        {
          "name": "_springrole_id",
          "type": "string"
        }
      ],
      "name": "retrieveVanityForSpringroleId",
      "outputs": [
        {
          "name": "",
          "type": "string"
        }
      ],
      "payable": false,
      "stateMutability": "view",
      "type": "function"
    },
    {
      "constant": false,
      "inputs": [
        {
          "name": "_vanity_url",
          "type": "string"
        },
        {
          "name": "_springrole_id",
          "type": "string"
        }
      ],
      "name": "reserve",
      "outputs": [],
      "payable": false,
      "stateMutability": "nonpayable",
      "type": "function"
    },
    {
      "constant": false,
      "inputs": [
        {
          "name": "_vanity_url",
          "type": "string"
        }
      ],
      "name": "checkForValidity",
      "outputs": [
        {
          "name": "",
          "type": "bool"
        }
      ],
      "payable": false,
      "stateMutability": "nonpayable",
      "type": "function"
    },
    {
      "constant": false,
      "inputs": [
        {
          "name": "_vanity_url",
          "type": "string"
        },
        {
          "name": "_springrole_id",
          "type": "string"
        }
      ],
      "name": "changeVanityURL",
      "outputs": [],
      "payable": false,
      "stateMutability": "nonpayable",
      "type": "function"
    },
    {
      "constant": false,
      "inputs": [
        {
          "name": "_to",
          "type": "address"
        }
      ],
      "name": "transferOwnershipForVanityURL",
      "outputs": [],
      "payable": false,
      "stateMutability": "nonpayable",
      "type": "function"
    },
    {
      "constant": false,
      "inputs": [
        {
          "name": "_to",
          "type": "address"
        },
        {
          "name": "_vanity_url",
          "type": "string"
        },
        {
          "name": "_springrole_id",
          "type": "string"
        },
        {
          "name": "_data",
          "type": "string"
        }
      ],
      "name": "reserveVanityURLByOwner",
      "outputs": [],
      "payable": false,
      "stateMutability": "nonpayable",
      "type": "function"
    },
    {
      "constant": false,
      "inputs": [
        {
          "name": "_vanity_url",
          "type": "string"
        }
      ],
      "name": "releaseVanityUrl",
      "outputs": [],
      "payable": false,
      "stateMutability": "nonpayable",
      "type": "function"
    },
    {
      "constant": false,
      "inputs": [],
      "name": "kill",
      "outputs": [],
      "payable": false,
      "stateMutability": "nonpayable",
      "type": "function"
    }
  ],
  "bytecode": "0x608060405260008060146101000a81548160ff02191690831515021790555034801561002a57600080fd5b50336000806101000a81548173ffffffffffffffffffffffffffffffffffffffff021916908373ffffffffffffffffffffffffffffffffffffffff1602179055506132c78061007a6000396000f3006080604052600436106100e5576000357c0100000000000000000000000000000000000000000000000000000000900463ffffffff168062eaedc81461014f578063035475141461020b5780630c47808d146102ed5780633f4ba83a1461040257806341c0e1b51461041957806358229591146104305780635c975abb146104df57806369ba820e1461050e578063758822e6146105b75780638456cb59146106385780638da5cb5b1461064f57806396bf6b27146106a6578063a3e5c43114610755578063b223d28514610837578063be981ff4146108a0578063f2fde38b146108e3575b6000809054906101000a900473ffffffffffffffffffffffffffffffffffffffff1673ffffffffffffffffffffffffffffffffffffffff166108fc349081150290604051600060405180830381858888f1935050505015801561014c573d6000803e3d6000fd5b50005b34801561015b57600080fd5b50610190600480360381019080803573ffffffffffffffffffffffffffffffffffffffff169060200190929190505050610926565b6040518080602001828103825283818151815260200191508051906020019080838360005b838110156101d05780820151818401526020810190506101b5565b50505050905090810190601f1680156101fd5780820380516001836020036101000a031916815260200191505b509250505060405180910390f35b34801561021757600080fd5b50610272600480360381019080803590602001908201803590602001908080601f0160208091040260200160405190810160405280939291908181526020018383808284378201915050505050509192919290505050610a07565b6040518080602001828103825283818151815260200191508051906020019080838360005b838110156102b2578082015181840152602081019050610297565b50505050905090810190601f1680156102df5780820380516001836020036101000a031916815260200191505b509250505060405180910390f35b3480156102f957600080fd5b50610400600480360381019080803573ffffffffffffffffffffffffffffffffffffffff169060200190929190803590602001908201803590602001908080601f0160208091040260200160405190810160405280939291908181526020018383808284378201915050505050509192919290803590602001908201803590602001908080601f0160208091040260200160405190810160405280939291908181526020018383808284378201915050505050509192919290803590602001908201803590602001908080601f0160208091040260200160405190810160405280939291908181526020018383808284378201915050505050509192919290505050610b14565b005b34801561040e57600080fd5b50610417611396565b005b34801561042557600080fd5b5061042e611454565b005b34801561043c57600080fd5b506104dd600480360381019080803590602001908201803590602001908080601f0160208091040260200160405190810160405280939291908181526020018383808284378201915050505050509192919290803590602001908201803590602001908080601f01602080910402602001604051908101604052809392919081815260200183838082843782019150505050505091929192905050506114e9565b005b3480156104eb57600080fd5b506104f46119ac565b604051808215151515815260200191505060405180910390f35b34801561051a57600080fd5b50610575600480360381019080803590602001908201803590602001908080601f01602080910402602001604051908101604052809392919081815260200183838082843782019150505050505091929192905050506119bf565b604051808273ffffffffffffffffffffffffffffffffffffffff1673ffffffffffffffffffffffffffffffffffffffff16815260200191505060405180910390f35b3480156105c357600080fd5b5061061e600480360381019080803590602001908201803590602001908080601f0160208091040260200160405190810160405280939291908181526020018383808284378201915050505050509192919290505050611a54565b604051808215151515815260200191505060405180910390f35b34801561064457600080fd5b5061064d611d31565b005b34801561065b57600080fd5b50610664611df1565b604051808273ffffffffffffffffffffffffffffffffffffffff1673ffffffffffffffffffffffffffffffffffffffff16815260200191505060405180910390f35b3480156106b257600080fd5b50610753600480360381019080803590602001908201803590602001908080601f0160208091040260200160405190810160405280939291908181526020018383808284378201915050505050509192919290803590602001908201803590602001908080601f0160208091040260200160405190810160405280939291908181526020018383808284378201915050505050509192919290505050611e16565b005b34801561076157600080fd5b506107bc600480360381019080803590602001908201803590602001908080601f01602080910402602001604051908101604052809392919081815260200183838082843782019150505050505091929192905050506122da565b6040518080602001828103825283818151815260200191508051906020019080838360005b838110156107fc5780820151818401526020810190506107e1565b50505050905090810190601f1680156108295780820380516001836020036101000a031916815260200191505b509250505060405180910390f35b34801561084357600080fd5b5061089e600480360381019080803590602001908201803590602001908080601f01602080910402602001604051908101604052809392919081815260200183838082843782019150505050505091929192905050506123e7565b005b3480156108ac57600080fd5b506108e1600480360381019080803573ffffffffffffffffffffffffffffffffffffffff169060200190929190505050612886565b005b3480156108ef57600080fd5b50610924600480360381019080803573ffffffffffffffffffffffffffffffffffffffff169060200190929190505050612ca0565b005b6060600260008373ffffffffffffffffffffffffffffffffffffffff1673ffffffffffffffffffffffffffffffffffffffff1681526020019081526020016000208054600181600116156101000203166002900480601f0160208091040260200160405190810160405280929190818152602001828054600181600116156101000203166002900480156109fb5780601f106109d0576101008083540402835291602001916109fb565b820191906000526020600020905b8154815290600101906020018083116109de57829003601f168201915b50505050509050919050565b60606003826040518082805190602001908083835b602083101515610a415780518252602082019150602081019050602083039250610a1c565b6001836020036101000a03801982511681845116808217855250505050505090500191505090815260200160405180910390208054600181600116156101000203166002900480601f016020809104026020016040519081016040528092919081815260200182805460018160011615610100020316600290048015610b085780601f10610add57610100808354040283529160200191610b08565b820191906000526020600020905b815481529060010190602001808311610aeb57829003601f168201915b50505050509050919050565b600060149054906101000a900460ff16151515610b3057600080fd5b6000809054906101000a900473ffffffffffffffffffffffffffffffffffffffff1673ffffffffffffffffffffffffffffffffffffffff163373ffffffffffffffffffffffffffffffffffffffff16141515610b8b57600080fd5b610b9483612df5565b9250610b9f83611a54565b1515610baa57600080fd5b600073ffffffffffffffffffffffffffffffffffffffff166001846040518082805190602001908083835b602083101515610bfa5780518252602082019150602081019050602083039250610bd5565b6001836020036101000a038019825116818451168082178552505050505050905001915050908152602001604051809103902060009054906101000a900473ffffffffffffffffffffffffffffffffffffffff1673ffffffffffffffffffffffffffffffffffffffff161415156110c1577fa41090171f873981780034276c6b8b839713e8fde71f51ed9ace441c38a91d1e6001846040518082805190602001908083835b602083101515610cc45780518252602082019150602081019050602083039250610c9f565b6001836020036101000a038019825116818451168082178552505050505050905001915050908152602001604051809103902060009054906101000a900473ffffffffffffffffffffffffffffffffffffffff168585604051808473ffffffffffffffffffffffffffffffffffffffff1673ffffffffffffffffffffffffffffffffffffffff1681526020018373ffffffffffffffffffffffffffffffffffffffff1673ffffffffffffffffffffffffffffffffffffffff16815260200180602001828103825283818151815260200191508051906020019080838360005b83811015610dbe578082015181840152602081019050610da3565b50505050905090810190601f168015610deb5780820380516001836020036101000a031916815260200191505b5094505050505060405180910390a1600260006001856040518082805190602001908083835b602083101515610e365780518252602082019150602081019050602083039250610e11565b6001836020036101000a038019825116818451168082178552505050505050905001915050908152602001604051809103902060009054906101000a900473ffffffffffffffffffffffffffffffffffffffff1673ffffffffffffffffffffffffffffffffffffffff1673ffffffffffffffffffffffffffffffffffffffff1681526020019081526020016000206000610ed09190613127565b6001836040518082805190602001908083835b602083101515610f085780518252602082019150602081019050602083039250610ee3565b6001836020036101000a038019825116818451168082178552505050505050905001915050908152602001604051809103902060006101000a81549073ffffffffffffffffffffffffffffffffffffffff021916905560046003846040518082805190602001908083835b602083101515610f985780518252602082019150602081019050602083039250610f73565b6001836020036101000a038019825116818451168082178552505050505050905001915050908152602001604051809103902060405180828054600181600116156101000203166002900480156110265780601f10611004576101008083540402835291820191611026565b820191906000526020600020905b815481529060010190602001808311611012575b5050915050908152602001604051809103902060006110459190613127565b6003836040518082805190602001908083835b60208310151561107d5780518252602082019150602081019050602083039250611058565b6001836020036101000a038019825116818451168082178552505050505050905001915050908152602001604051809103902060006110bc9190613127565b611192565b7f762ffc42e32a1438e72ead545922b834fbdbb79a0547b358a3418bfe286b25b78484604051808373ffffffffffffffffffffffffffffffffffffffff1673ffffffffffffffffffffffffffffffffffffffff16815260200180602001828103825283818151815260200191508051906020019080838360005b8381101561115657808201518184015260208101905061113b565b50505050905090810190601f1680156111835780820380516001836020036101000a031916815260200191505b50935050505060405180910390a15b836001846040518082805190602001908083835b6020831015156111cb57805182526020820191506020810190506020830392506111a6565b6001836020036101000a038019825116818451168082178552505050505050905001915050908152602001604051809103902060006101000a81548173ffffffffffffffffffffffffffffffffffffffff021916908373ffffffffffffffffffffffffffffffffffffffff16021790555082600260008673ffffffffffffffffffffffffffffffffffffffff1673ffffffffffffffffffffffffffffffffffffffff168152602001908152602001600020908051906020019061128f92919061316f565b50826004836040518082805190602001908083835b6020831015156112c957805182526020820191506020810190506020830392506112a4565b6001836020036101000a0380198251168184511680821785525050505050509050019150509081526020016040518091039020908051906020019061130f92919061316f565b50816003846040518082805190602001908083835b6020831015156113495780518252602082019150602081019050602083039250611324565b6001836020036101000a0380198251168184511680821785525050505050509050019150509081526020016040518091039020908051906020019061138f92919061316f565b5050505050565b6000809054906101000a900473ffffffffffffffffffffffffffffffffffffffff1673ffffffffffffffffffffffffffffffffffffffff163373ffffffffffffffffffffffffffffffffffffffff161415156113f157600080fd5b600060149054906101000a900460ff16151561140c57600080fd5b60008060146101000a81548160ff0219169083151502179055507f7805862f689e2f13df9f062ff482ad3ad112aca9e0847911ed832e158c525b3360405160405180910390a1565b6000809054906101000a900473ffffffffffffffffffffffffffffffffffffffff1673ffffffffffffffffffffffffffffffffffffffff163373ffffffffffffffffffffffffffffffffffffffff161415156114af57600080fd5b6000809054906101000a900473ffffffffffffffffffffffffffffffffffffffff1673ffffffffffffffffffffffffffffffffffffffff16ff5b600060149054906101000a900460ff1615151561150557600080fd5b61150e82612df5565b915061151982611a54565b151561152457600080fd5b600073ffffffffffffffffffffffffffffffffffffffff166001836040518082805190602001908083835b602083101515611574578051825260208201915060208101905060208303925061154f565b6001836020036101000a038019825116818451168082178552505050505050905001915050908152602001604051809103902060009054906101000a900473ffffffffffffffffffffffffffffffffffffffff1673ffffffffffffffffffffffffffffffffffffffff161415156115ea57600080fd5b6000600260003373ffffffffffffffffffffffffffffffffffffffff1673ffffffffffffffffffffffffffffffffffffffff16815260200190815260200160002080546001816001161561010002031660029004905014151561164c57600080fd5b60006004826040518082805190602001908083835b6020831015156116865780518252602082019150602081019050602083039250611661565b6001836020036101000a03801982511681845116808217855250505050505090500191505090815260200160405180910390208054600181600116156101000203166002900490501415156116da57600080fd5b336001836040518082805190602001908083835b60208310151561171357805182526020820191506020810190506020830392506116ee565b6001836020036101000a038019825116818451168082178552505050505050905001915050908152602001604051809103902060006101000a81548173ffffffffffffffffffffffffffffffffffffffff021916908373ffffffffffffffffffffffffffffffffffffffff160217905550806003836040518082805190602001908083835b6020831015156117bd5780518252602082019150602081019050602083039250611798565b6001836020036101000a0380198251168184511680821785525050505050509050019150509081526020016040518091039020908051906020019061180392919061316f565b50816004826040518082805190602001908083835b60208310151561183d5780518252602082019150602081019050602083039250611818565b6001836020036101000a0380198251168184511680821785525050505050509050019150509081526020016040518091039020908051906020019061188392919061316f565b5081600260003373ffffffffffffffffffffffffffffffffffffffff1673ffffffffffffffffffffffffffffffffffffffff16815260200190815260200160002090805190602001906118d792919061316f565b507f762ffc42e32a1438e72ead545922b834fbdbb79a0547b358a3418bfe286b25b73383604051808373ffffffffffffffffffffffffffffffffffffffff1673ffffffffffffffffffffffffffffffffffffffff16815260200180602001828103825283818151815260200191508051906020019080838360005b8381101561196d578082015181840152602081019050611952565b50505050905090810190601f16801561199a5780820380516001836020036101000a031916815260200191505b50935050505060405180910390a15050565b600060149054906101000a900460ff1681565b60006001826040518082805190602001908083835b6020831015156119f957805182526020820191506020810190506020830392506119d4565b6001836020036101000a038019825116818451168082178552505050505050905001915050908152602001604051809103902060009054906101000a900473ffffffffffffffffffffffffffffffffffffffff169050919050565b6000806000808451925060048310158015611a70575060c88311155b1515611a7b57600080fd5b600091505b82821015611d24578482815181101515611a9657fe5b9060200101517f010000000000000000000000000000000000000000000000000000000000000090047f010000000000000000000000000000000000000000000000000000000000000002905060307f010000000000000000000000000000000000000000000000000000000000000002817effffffffffffffffffffffffffffffffffffffffffffffffffffffffffffff19161080611b7a5750607a7f010000000000000000000000000000000000000000000000000000000000000002817effffffffffffffffffffffffffffffffffffffffffffffffffffffffffffff1916115b80611c19575060397f010000000000000000000000000000000000000000000000000000000000000002817effffffffffffffffffffffffffffffffffffffffffffffffffffffffffffff1916118015611c18575060417f010000000000000000000000000000000000000000000000000000000000000002817effffffffffffffffffffffffffffffffffffffffffffffffffffffffffffff1916105b5b80611cb85750605a7f010000000000000000000000000000000000000000000000000000000000000002817effffffffffffffffffffffffffffffffffffffffffffffffffffffffffffff1916118015611cb7575060617f010000000000000000000000000000000000000000000000000000000000000002817effffffffffffffffffffffffffffffffffffffffffffffffffffffffffffff1916105b5b8015611d095750605f7f010000000000000000000000000000000000000000000000000000000000000002817effffffffffffffffffffffffffffffffffffffffffffffffffffffffffffff191614155b15611d175760009350611d29565b8180600101925050611a80565b600193505b505050919050565b6000809054906101000a900473ffffffffffffffffffffffffffffffffffffffff1673ffffffffffffffffffffffffffffffffffffffff163373ffffffffffffffffffffffffffffffffffffffff16141515611d8c57600080fd5b600060149054906101000a900460ff16151515611da857600080fd5b6001600060146101000a81548160ff0219169083151502179055507f6985a02210a168e66602d3235cb6db0e70f92b3ba4d376a33c0f3d9434bff62560405160405180910390a1565b6000809054906101000a900473ffffffffffffffffffffffffffffffffffffffff1681565b600060149054906101000a900460ff16151515611e3257600080fd5b6000600260003373ffffffffffffffffffffffffffffffffffffffff1673ffffffffffffffffffffffffffffffffffffffff16815260200190815260200160002080546001816001161561010002031660029004905014151515611e9557600080fd5b60006004826040518082805190602001908083835b602083101515611ecf5780518252602082019150602081019050602083039250611eaa565b6001836020036101000a0380198251168184511680821785525050505050509050019150509081526020016040518091039020805460018160011615610100020316600290049050141515611f2357600080fd5b611f2c82612df5565b9150611f3782611a54565b1515611f4257600080fd5b600073ffffffffffffffffffffffffffffffffffffffff166001836040518082805190602001908083835b602083101515611f925780518252602082019150602081019050602083039250611f6d565b6001836020036101000a038019825116818451168082178552505050505050905001915050908152602001604051809103902060009054906101000a900473ffffffffffffffffffffffffffffffffffffffff1673ffffffffffffffffffffffffffffffffffffffff1614151561200857600080fd5b336001836040518082805190602001908083835b602083101515612041578051825260208201915060208101905060208303925061201c565b6001836020036101000a038019825116818451168082178552505050505050905001915050908152602001604051809103902060006101000a81548173ffffffffffffffffffffffffffffffffffffffff021916908373ffffffffffffffffffffffffffffffffffffffff16021790555081600260003373ffffffffffffffffffffffffffffffffffffffff1673ffffffffffffffffffffffffffffffffffffffff168152602001908152602001600020908051906020019061210592919061316f565b50806003836040518082805190602001908083835b60208310151561213f578051825260208201915060208101905060208303925061211a565b6001836020036101000a0380198251168184511680821785525050505050509050019150509081526020016040518091039020908051906020019061218592919061316f565b50816004826040518082805190602001908083835b6020831015156121bf578051825260208201915060208101905060208303925061219a565b6001836020036101000a0380198251168184511680821785525050505050509050019150509081526020016040518091039020908051906020019061220592919061316f565b507f762ffc42e32a1438e72ead545922b834fbdbb79a0547b358a3418bfe286b25b73383604051808373ffffffffffffffffffffffffffffffffffffffff1673ffffffffffffffffffffffffffffffffffffffff16815260200180602001828103825283818151815260200191508051906020019080838360005b8381101561229b578082015181840152602081019050612280565b50505050905090810190601f1680156122c85780820380516001836020036101000a031916815260200191505b50935050505060405180910390a15050565b60606004826040518082805190602001908083835b60208310151561231457805182526020820191506020810190506020830392506122ef565b6001836020036101000a03801982511681845116808217855250505050505090500191505090815260200160405180910390208054600181600116156101000203166002900480601f0160208091040260200160405190810160405280929190818152602001828054600181600116156101000203166002900480156123db5780601f106123b0576101008083540402835291602001916123db565b820191906000526020600020905b8154815290600101906020018083116123be57829003601f168201915b50505050509050919050565b600060149054906101000a900460ff1615151561240357600080fd5b6000809054906101000a900473ffffffffffffffffffffffffffffffffffffffff1673ffffffffffffffffffffffffffffffffffffffff163373ffffffffffffffffffffffffffffffffffffffff1614151561245e57600080fd5b600073ffffffffffffffffffffffffffffffffffffffff166001826040518082805190602001908083835b6020831015156124ae5780518252602082019150602081019050602083039250612489565b6001836020036101000a038019825116818451168082178552505050505050905001915050908152602001604051809103902060009054906101000a900473ffffffffffffffffffffffffffffffffffffffff1673ffffffffffffffffffffffffffffffffffffffff161415151561252557600080fd5b600260006001836040518082805190602001908083835b602083101515612561578051825260208201915060208101905060208303925061253c565b6001836020036101000a038019825116818451168082178552505050505050905001915050908152602001604051809103902060009054906101000a900473ffffffffffffffffffffffffffffffffffffffff1673ffffffffffffffffffffffffffffffffffffffff1673ffffffffffffffffffffffffffffffffffffffff16815260200190815260200160002060006125fb9190613127565b6001816040518082805190602001908083835b602083101515612633578051825260208201915060208101905060208303925061260e565b6001836020036101000a038019825116818451168082178552505050505050905001915050908152602001604051809103902060006101000a81549073ffffffffffffffffffffffffffffffffffffffff021916905560046003826040518082805190602001908083835b6020831015156126c3578051825260208201915060208101905060208303925061269e565b6001836020036101000a038019825116818451168082178552505050505050905001915050908152602001604051809103902060405180828054600181600116156101000203166002900480156127515780601f1061272f576101008083540402835291820191612751565b820191906000526020600020905b81548152906001019060200180831161273d575b5050915050908152602001604051809103902060006127709190613127565b6003816040518082805190602001908083835b6020831015156127a85780518252602082019150602081019050602083039250612783565b6001836020036101000a038019825116818451168082178552505050505050905001915050908152602001604051809103902060006127e79190613127565b7f41ce979d159b3eb8eb7e4326b900bf729ba92dc57fc0c90eb976a136b17bd13f816040518080602001828103825283818151815260200191508051906020019080838360005b8381101561284957808201518184015260208101905061282e565b50505050905090810190601f1680156128765780820380516001836020036101000a031916815260200191505b509250505060405180910390a150565b600060149054906101000a900460ff161515156128a257600080fd5b6000600260008373ffffffffffffffffffffffffffffffffffffffff1673ffffffffffffffffffffffffffffffffffffffff16815260200190815260200160002080546001816001161561010002031660029004905014151561290457600080fd5b6000600260003373ffffffffffffffffffffffffffffffffffffffff1673ffffffffffffffffffffffffffffffffffffffff1681526020019081526020016000208054600181600116156101000203166002900490501415151561296757600080fd5b600260003373ffffffffffffffffffffffffffffffffffffffff1673ffffffffffffffffffffffffffffffffffffffff168152602001908152602001600020600260008373ffffffffffffffffffffffffffffffffffffffff1673ffffffffffffffffffffffffffffffffffffffff1681526020019081526020016000209080546001816001161561010002031660029004612a049291906131ef565b50806001600260003373ffffffffffffffffffffffffffffffffffffffff1673ffffffffffffffffffffffffffffffffffffffff1681526020019081526020016000206040518082805460018160011615610100020316600290048015612aa25780601f10612a80576101008083540402835291820191612aa2565b820191906000526020600020905b815481529060010190602001808311612a8e575b5050915050908152602001604051809103902060006101000a81548173ffffffffffffffffffffffffffffffffffffffff021916908373ffffffffffffffffffffffffffffffffffffffff1602179055507fa41090171f873981780034276c6b8b839713e8fde71f51ed9ace441c38a91d1e3382600260003373ffffffffffffffffffffffffffffffffffffffff1673ffffffffffffffffffffffffffffffffffffffff168152602001908152602001600020604051808473ffffffffffffffffffffffffffffffffffffffff1673ffffffffffffffffffffffffffffffffffffffff1681526020018373ffffffffffffffffffffffffffffffffffffffff1673ffffffffffffffffffffffffffffffffffffffff16815260200180602001828103825283818154600181600116156101000203166002900481526020019150805460018160011615610100020316600290048015612c425780601f10612c1757610100808354040283529160200191612c42565b820191906000526020600020905b815481529060010190602001808311612c2557829003601f168201915b505094505050505060405180910390a1600260003373ffffffffffffffffffffffffffffffffffffffff1673ffffffffffffffffffffffffffffffffffffffff1681526020019081526020016000206000612c9d9190613127565b50565b6000809054906101000a900473ffffffffffffffffffffffffffffffffffffffff1673ffffffffffffffffffffffffffffffffffffffff163373ffffffffffffffffffffffffffffffffffffffff16141515612cfb57600080fd5b600073ffffffffffffffffffffffffffffffffffffffff168173ffffffffffffffffffffffffffffffffffffffff1614151515612d3757600080fd5b8073ffffffffffffffffffffffffffffffffffffffff166000809054906101000a900473ffffffffffffffffffffffffffffffffffffffff1673ffffffffffffffffffffffffffffffffffffffff167f8be0079c531659141344cd1fd0a4f28419497f9722a3daafe3b4186f6b6457e060405160405180910390a3806000806101000a81548173ffffffffffffffffffffffffffffffffffffffff021916908373ffffffffffffffffffffffffffffffffffffffff16021790555050565b6060806060600084925082516040519080825280601f01601f191660200182016040528015612e335781602001602082028038833980820191505090505b509150600090505b825181101561311c5760417f0100000000000000000000000000000000000000000000000000000000000000028382815181101515612e7657fe5b9060200101517f010000000000000000000000000000000000000000000000000000000000000090047f0100000000000000000000000000000000000000000000000000000000000000027effffffffffffffffffffffffffffffffffffffffffffffffffffffffffffff191610158015612f8e5750605a7f0100000000000000000000000000000000000000000000000000000000000000028382815181101515612f1e57fe5b9060200101517f010000000000000000000000000000000000000000000000000000000000000090047f0100000000000000000000000000000000000000000000000000000000000000027effffffffffffffffffffffffffffffffffffffffffffffffffffffffffffff191611155b156130775760208382815181101515612fa357fe5b9060200101517f010000000000000000000000000000000000000000000000000000000000000090047f0100000000000000000000000000000000000000000000000000000000000000027f01000000000000000000000000000000000000000000000000000000000000009004017f010000000000000000000000000000000000000000000000000000000000000002828281518110151561304257fe5b9060200101907effffffffffffffffffffffffffffffffffffffffffffffffffffffffffffff1916908160001a90535061310f565b828181518110151561308557fe5b9060200101517f010000000000000000000000000000000000000000000000000000000000000090047f01000000000000000000000000000000000000000000000000000000000000000282828151811015156130de57fe5b9060200101907effffffffffffffffffffffffffffffffffffffffffffffffffffffffffffff1916908160001a9053505b8080600101915050612e3b565b819350505050919050565b50805460018160011615610100020316600290046000825580601f1061314d575061316c565b601f01602090049060005260206000209081019061316b9190613276565b5b50565b828054600181600116156101000203166002900490600052602060002090601f016020900481019282601f106131b057805160ff19168380011785556131de565b828001600101855582156131de579182015b828111156131dd5782518255916020019190600101906131c2565b5b5090506131eb9190613276565b5090565b828054600181600116156101000203166002900490600052602060002090601f016020900481019282601f106132285780548555613265565b8280016001018555821561326557600052602060002091601f016020900482015b82811115613264578254825591600101919060010190613249565b5b5090506132729190613276565b5090565b61329891905b8082111561329457600081600090555060010161327c565b5090565b905600a165627a7a723058209994df93814a3d96944f8d23671f5da5f186e2d8fb476d78389fb8b81f6d62c90029",
  "source": "pragma solidity ^0.4.19;\n\n/**\n* Contract for Vanity URL on SpringRole\n* Go to beta.springrole.com to try this out!\n*/\n\n/**\n * @title Ownable\n * @dev The Ownable contract has an owner address, and provides basic authorization control\n * functions, this simplifies the implementation of user permissions.\n */\n\ncontract Ownable {\n  address public owner;\n\n\n  event OwnershipTransferred(address indexed previousOwner, address indexed newOwner);\n\n  /**\n   * @dev The Ownable constructor sets the original `owner` of the contract to the sender\n   * account.\n   */\n  function Ownable() {\n    owner = msg.sender;\n  }\n\n\n  /**\n   * @dev Throws if called by any account other than the owner.\n   */\n  modifier onlyOwner() {\n    require(msg.sender == owner);\n    _;\n  }\n\n\n  /**\n   * @dev Allows the current owner to transfer control of the contract to a newOwner.\n   * newOwner The address to transfer ownership to.\n   */\n  function transferOwnership(address newOwner) onlyOwner public {\n    require(newOwner != address(0));\n    OwnershipTransferred(owner, newOwner);\n    owner = newOwner;\n  }\n\n}\n\n/**\n * @title Pausable\n * @dev Base contract which allows children to implement an emergency stop mechanism.\n */\n\ncontract Pausable is Ownable {\n  event Pause();\n  event Unpause();\n\n  bool public paused = false;\n\n\n  /**\n   * @dev Modifier to make a function callable only when the contract is not paused.\n   */\n  modifier whenNotPaused() {\n    require(!paused);\n    _;\n  }\n\n  /**\n   * @dev Modifier to make a function callable only when the contract is paused.\n   */\n  modifier whenPaused() {\n    require(paused);\n    _;\n  }\n\n  /**\n   * @dev called by the owner to pause, triggers stopped state\n   */\n  function pause() onlyOwner whenNotPaused public {\n    paused = true;\n    Pause();\n  }\n\n  /**\n   * @dev called by the owner to unpause, returns to normal state\n   */\n  function unpause() onlyOwner whenPaused public {\n    paused = false;\n    Unpause();\n  }\n}\n\n\n/**\n * @title VanityURL\n * @dev The VanityURL contract provides functionality to reserve vanity URLs.\n * Go to https://beta.springrole.com to reserve.\n */\n\n\ncontract VanityURL is Ownable,Pausable {\n\n  // This declares a state variable that mapping for vanityURL to address\n  mapping (string => address) vanity_address_mapping;\n  // This declares a state variable that mapping for address to vanityURL\n  mapping (address => string ) address_vanity_mapping;\n  // This declares a state variable that mapping for vanityURL to Springrole ID\n  mapping (string => string) vanity_springrole_id_mapping;\n  // This declares a state variable that mapping for Springrole ID to vanityURL\n  mapping (string => string) springrole_id_vanity_mapping;\n  /*\n    constructor function to set token address & Pricing for reserving and token transfer address\n   */\n  function VanityURL(){\n  }\n\n  event VanityReserved(address _to, string _vanity_url);\n  event VanityTransfered(address _to,address _from, string _vanity_url);\n  event VanityReleased(string _vanity_url);\n\n  /* function to retrive wallet address from vanity url */\n  function retrieveWalletForVanity(string _vanity_url) constant public returns (address) {\n    return vanity_address_mapping[_vanity_url];\n  }\n\n  /* function to retrive vanity url from address */\n  function retrieveVanityForWallet(address _address) constant public returns (string) {\n    return address_vanity_mapping[_address];\n  }\n\n  /* function to retrive wallet springrole id from vanity url */\n  function retrieveSpringroleIdForVanity(string _vanity_url) constant public returns (string) {\n    return vanity_springrole_id_mapping[_vanity_url];\n  }\n\n  /* function to retrive vanity url from address */\n  function retrieveVanityForSpringroleId(string _springrole_id) constant public returns (string) {\n    return springrole_id_vanity_mapping[_springrole_id];\n  }\n\n  /*\n    function to reserve vanityURL\n    1. Checks if vanity is check is valid\n    2. Checks if address has already a vanity url\n    3. check if vanity url is used by any other or not\n    4. Check if vanity url is present in any other spingrole id\n    5. Transfer the token\n    6. Update the mapping variables\n  */\n  function reserve(string _vanity_url,string _springrole_id) whenNotPaused public {\n    _vanity_url = _toLower(_vanity_url);\n    require(checkForValidity(_vanity_url));\n    require(vanity_address_mapping[_vanity_url]  == address(0x0));\n    require(bytes(address_vanity_mapping[msg.sender]).length == 0);\n    require(bytes(springrole_id_vanity_mapping[_springrole_id]).length == 0);\n    /* adding to vanity address mapping */\n    vanity_address_mapping[_vanity_url] = msg.sender;\n    /* adding to vanity springrole id mapping */\n    vanity_springrole_id_mapping[_vanity_url] = _springrole_id;\n    /* adding to springrole id vanity mapping */\n    springrole_id_vanity_mapping[_springrole_id] = _vanity_url;\n    /* adding to address vanity mapping */\n    address_vanity_mapping[msg.sender] = _vanity_url;\n    VanityReserved(msg.sender, _vanity_url);\n  }\n\n  /*\n  function to make lowercase\n  */\n\n  function _toLower(string str) internal returns (string) {\n\t\tbytes memory bStr = bytes(str);\n\t\tbytes memory bLower = new bytes(bStr.length);\n\t\tfor (uint i = 0; i < bStr.length; i++) {\n\t\t\t// Uppercase character...\n\t\t\tif ((bStr[i] >= 65) && (bStr[i] <= 90)) {\n\t\t\t\t// So we add 32 to make it lowercase\n\t\t\t\tbLower[i] = bytes1(int(bStr[i]) + 32);\n\t\t\t} else {\n\t\t\t\tbLower[i] = bStr[i];\n\t\t\t}\n\t\t}\n\t\treturn string(bLower);\n\t}\n\n  /*\n  function to verify vanityURL\n  1. Minimum length 4\n  2.Maximum lenght 200\n  3.Vanity url is only alphanumeric\n   */\n  function checkForValidity(string _vanity_url) returns (bool) {\n    uint length =  bytes(_vanity_url).length;\n    require(length >= 4 && length <= 200);\n    for (uint i =0; i< length; i++){\n      var c = bytes(_vanity_url)[i];\n      if ((c < 48 ||  c > 122 || (c > 57 && c < 65) || (c > 90 && c < 97 )) && (c != 95))\n        return false;\n    }\n    return true;\n  }\n\n  /*\n  function to change Vanity URL\n    1. Checks whether vanity URL is check is valid\n    2. Checks whether springrole id has already has a vanity\n    3. Checks if address has already a vanity url\n    4. check if vanity url is used by any other or not\n    5. Check if vanity url is present in reserved keyword\n    6. Update the mapping variables\n  */\n\n  function changeVanityURL(string _vanity_url, string _springrole_id) whenNotPaused public {\n    require(bytes(address_vanity_mapping[msg.sender]).length != 0);\n    require(bytes(springrole_id_vanity_mapping[_springrole_id]).length == 0);\n    _vanity_url = _toLower(_vanity_url);\n    require(checkForValidity(_vanity_url));\n    require(vanity_address_mapping[_vanity_url]  == address(0x0));\n\n    vanity_address_mapping[_vanity_url] = msg.sender;\n    address_vanity_mapping[msg.sender] = _vanity_url;\n    vanity_springrole_id_mapping[_vanity_url]=_springrole_id;\n    springrole_id_vanity_mapping[_springrole_id]=_vanity_url;\n\n    VanityReserved(msg.sender, _vanity_url);\n  }\n\n  /*\n  function to transfer ownership for Vanity URL\n  */\n  function transferOwnershipForVanityURL(address _to) whenNotPaused public {\n    require(bytes(address_vanity_mapping[_to]).length == 0);\n    require(bytes(address_vanity_mapping[msg.sender]).length != 0);\n    address_vanity_mapping[_to] = address_vanity_mapping[msg.sender];\n    vanity_address_mapping[address_vanity_mapping[msg.sender]] = _to;\n    VanityTransfered(msg.sender,_to,address_vanity_mapping[msg.sender]);\n    delete(address_vanity_mapping[msg.sender]);\n  }\n\n  /*\n  function to transfer ownership for Vanity URL by Owner\n  */\n  function reserveVanityURLByOwner(address _to,string _vanity_url,string _springrole_id,string _data) whenNotPaused onlyOwner public {\n      _vanity_url = _toLower(_vanity_url);\n      require(checkForValidity(_vanity_url));\n      /* check if vanity url is being used by anyone */\n      if(vanity_address_mapping[_vanity_url]  != address(0x0))\n      {\n        /* Sending Vanity Transfered Event */\n        VanityTransfered(vanity_address_mapping[_vanity_url],_to,_vanity_url);\n        /* delete from address mapping */\n        delete(address_vanity_mapping[vanity_address_mapping[_vanity_url]]);\n        /* delete from vanity mapping */\n        delete(vanity_address_mapping[_vanity_url]);\n        /* delete from springrole id vanity mapping */\n        delete(springrole_id_vanity_mapping[vanity_springrole_id_mapping[_vanity_url]]);\n        /* delete from vanity springrole id mapping */\n        delete(vanity_springrole_id_mapping[_vanity_url]);\n      }\n      else\n      {\n        /* sending VanityReserved event */\n        VanityReserved(_to, _vanity_url);\n      }\n      /* add new address to mapping */\n      vanity_address_mapping[_vanity_url] = _to;\n      address_vanity_mapping[_to] = _vanity_url;\n      springrole_id_vanity_mapping[_springrole_id] = _vanity_url;\n      vanity_springrole_id_mapping[_vanity_url] = _springrole_id;\n  }\n\n  /*\n  function to release a Vanity URL by Owner\n  */\n  function releaseVanityUrl(string _vanity_url) whenNotPaused onlyOwner public {\n    require(vanity_address_mapping[_vanity_url]  != address(0x0));\n    /* delete from address mapping */\n    delete(address_vanity_mapping[vanity_address_mapping[_vanity_url]]);\n    /* delete from vanity mapping */\n    delete(vanity_address_mapping[_vanity_url]);\n    /* delete from springrole id vanity mapping */\n    delete(springrole_id_vanity_mapping[vanity_springrole_id_mapping[_vanity_url]]);\n    /* delete from vanity springrole id mapping */\n    delete(vanity_springrole_id_mapping[_vanity_url]);\n    /* sending VanityReleased event */\n    VanityReleased(_vanity_url);\n  }\n\n  /*\n    function to kill contract\n  */\n\n  function kill() onlyOwner {\n    selfdestruct(owner);\n  }\n\n  /*\n    transfer eth recived to owner account if any\n  */\n  function() payable {\n    owner.transfer(msg.value);\n  }\n\n}\n",
  "sourcePath": "/Users/pulkit29/Documents/smart-contracts/contracts/VanityURL.sol",
  "compiler": {
    "name": "solc",
    "version": "0.4.23+commit.124ca40d.Emscripten.clang"
  },
  "schemaVersion": "2.0.0",
  "updatedAt": "2018-06-26T07:57:57.116Z"
}