{
  "contractName": "VanityStorage",
  "abi": [
    {
      "constant": true,
      "inputs": [
        {
          "name": "_vanity_url",
          "type": "string"
        }
      ],
      "name": "retrieveWalletForVanity",
      "outputs": [
        {
          "name": "",
          "type": "address"
        }
      ],
      "payable": false,
      "stateMutability": "view",
      "type": "function"
    },
    {
      "constant": false,
      "inputs": [
        {
          "name": "_address",
          "type": "address"
        },
        {
          "name": "_vanity_url",
          "type": "string"
        }
      ],
      "name": "setWalletForVanity",
      "outputs": [],
      "payable": false,
      "stateMutability": "nonpayable",
      "type": "function"
    },
    {
      "constant": true,
      "inputs": [
        {
          "name": "_address",
          "type": "address"
        }
      ],
      "name": "retrieveVanityForWallet",
      "outputs": [
        {
          "name": "",
          "type": "string"
        }
      ],
      "payable": false,
      "stateMutability": "view",
      "type": "function"
    },
    {
      "constant": false,
      "inputs": [
        {
          "name": "_address",
          "type": "address"
        },
        {
          "name": "vanity_url",
          "type": "string"
        }
      ],
      "name": "setVanityForWallet",
      "outputs": [],
      "payable": false,
      "stateMutability": "nonpayable",
      "type": "function"
    },
    {
      "constant": true,
      "inputs": [
        {
          "name": "_vanity_url",
          "type": "string"
        }
      ],
      "name": "retrieveSpringroleIdForVanity",
      "outputs": [
        {
          "name": "",
          "type": "string"
        }
      ],
      "payable": false,
      "stateMutability": "view",
      "type": "function"
    },
    {
      "constant": false,
      "inputs": [
        {
          "name": "_vanity_url",
          "type": "string"
        },
        {
          "name": "springroleId",
          "type": "string"
        }
      ],
      "name": "setSpringroleIdForVanity",
      "outputs": [],
      "payable": false,
      "stateMutability": "nonpayable",
      "type": "function"
    },
    {
      "constant": true,
      "inputs": [
        {
          "name": "_springrole_id",
          "type": "string"
        }
      ],
      "name": "retrieveVanityForSpringroleId",
      "outputs": [
        {
          "name": "",
          "type": "string"
        }
      ],
      "payable": false,
      "stateMutability": "view",
      "type": "function"
    },
    {
      "constant": false,
      "inputs": [
        {
          "name": "_springrole_id",
          "type": "string"
        },
        {
          "name": "vanity_url",
          "type": "string"
        }
      ],
      "name": "setVanityForSpringroleId",
      "outputs": [],
      "payable": false,
      "stateMutability": "nonpayable",
      "type": "function"
    },
    {
      "constant": false,
      "inputs": [
        {
          "name": "_add",
          "type": "address"
        }
      ],
      "name": "deleteWalletVanityMapping",
      "outputs": [],
      "payable": false,
      "stateMutability": "nonpayable",
      "type": "function"
    },
    {
      "constant": false,
      "inputs": [
        {
          "name": "vanity",
          "type": "string"
        }
      ],
      "name": "deleteVanityWalletMapping",
      "outputs": [],
      "payable": false,
      "stateMutability": "nonpayable",
      "type": "function"
    },
    {
      "constant": false,
      "inputs": [
        {
          "name": "vanity",
          "type": "string"
        }
      ],
      "name": "deleteSpringVanityMapping",
      "outputs": [],
      "payable": false,
      "stateMutability": "nonpayable",
      "type": "function"
    },
    {
      "constant": false,
      "inputs": [
        {
          "name": "vanity",
          "type": "string"
        }
      ],
      "name": "deleteVanitySpringMapping",
      "outputs": [],
      "payable": false,
      "stateMutability": "nonpayable",
      "type": "function"
    }
  ],
  "bytecode": "0x608060405234801561001057600080fd5b506110ce806100206000396000f3006080604052600436106100b9576000357c0100000000000000000000000000000000000000000000000000000000900463ffffffff168062eaedc8146100be578063035475141461017a5780630ec552cd1461025c578063208b6485146102e55780632c8dc743146103945780635447bd3e146103fd57806369ba820e146104665780636adafd421461050f578063a3e5c43114610578578063a477a08c1461065a578063efc2c0fd146106e3578063f72aaa3e14610726575b600080fd5b3480156100ca57600080fd5b506100ff600480360381019080803573ffffffffffffffffffffffffffffffffffffffff1690602001909291905050506107d5565b6040518080602001828103825283818151815260200191508051906020019080838360005b8381101561013f578082015181840152602081019050610124565b50505050905090810190601f16801561016c5780820380516001836020036101000a031916815260200191505b509250505060405180910390f35b34801561018657600080fd5b506101e1600480360381019080803590602001908201803590602001908080601f01602080910402602001604051908101604052809392919081815260200183838082843782019150505050505091929192905050506108b6565b6040518080602001828103825283818151815260200191508051906020019080838360005b83811015610221578082015181840152602081019050610206565b50505050905090810190601f16801561024e5780820380516001836020036101000a031916815260200191505b509250505060405180910390f35b34801561026857600080fd5b506102e3600480360381019080803573ffffffffffffffffffffffffffffffffffffffff169060200190929190803590602001908201803590602001908080601f01602080910402602001604051908101604052809392919081815260200183838082843782019150505050505091929192905050506109c3565b005b3480156102f157600080fd5b50610392600480360381019080803590602001908201803590602001908080601f0160208091040260200160405190810160405280939291908181526020018383808284378201915050505050509192919290803590602001908201803590602001908080601f0160208091040260200160405190810160405280939291908181526020018383808284378201915050505050509192919290505050610a71565b005b3480156103a057600080fd5b506103fb600480360381019080803590602001908201803590602001908080601f0160208091040260200160405190810160405280939291908181526020018383808284378201915050505050509192919290505050610af5565b005b34801561040957600080fd5b50610464600480360381019080803590602001908201803590602001908080601f0160208091040260200160405190810160405280939291908181526020018383808284378201915050505050509192919290505050610b86565b005b34801561047257600080fd5b506104cd600480360381019080803590602001908201803590602001908080601f0160208091040260200160405190810160405280939291908181526020018383808284378201915050505050509192919290505050610c00565b604051808273ffffffffffffffffffffffffffffffffffffffff1673ffffffffffffffffffffffffffffffffffffffff16815260200191505060405180910390f35b34801561051b57600080fd5b50610576600480360381019080803590602001908201803590602001908080601f0160208091040260200160405190810160405280939291908181526020018383808284378201915050505050509192919290505050610c94565b005b34801561058457600080fd5b506105df600480360381019080803590602001908201803590602001908080601f0160208091040260200160405190810160405280939291908181526020018383808284378201915050505050509192919290505050610d7e565b6040518080602001828103825283818151815260200191508051906020019080838360005b8381101561061f578082015181840152602081019050610604565b50505050905090810190601f16801561064c5780820380516001836020036101000a031916815260200191505b509250505060405180910390f35b34801561066657600080fd5b506106e1600480360381019080803573ffffffffffffffffffffffffffffffffffffffff169060200190929190803590602001908201803590602001908080601f0160208091040260200160405190810160405280939291908181526020018383808284378201915050505050509192919290505050610e8b565b005b3480156106ef57600080fd5b50610724600480360381019080803573ffffffffffffffffffffffffffffffffffffffff169060200190929190505050610ee3565b005b34801561073257600080fd5b506107d3600480360381019080803590602001908201803590602001908080601f0160208091040260200160405190810160405280939291908181526020018383808284378201915050505050509192919290803590602001908201803590602001908080601f0160208091040260200160405190810160405280939291908181526020018383808284378201915050505050509192919290505050610f31565b005b6060600160008373ffffffffffffffffffffffffffffffffffffffff1673ffffffffffffffffffffffffffffffffffffffff1681526020019081526020016000208054600181600116156101000203166002900480601f0160208091040260200160405190810160405280929190818152602001828054600181600116156101000203166002900480156108aa5780601f1061087f576101008083540402835291602001916108aa565b820191906000526020600020905b81548152906001019060200180831161088d57829003601f168201915b50505050509050919050565b60606002826040518082805190602001908083835b6020831015156108f057805182526020820191506020810190506020830392506108cb565b6001836020036101000a03801982511681845116808217855250505050505090500191505090815260200160405180910390208054600181600116156101000203166002900480601f0160208091040260200160405190810160405280929190818152602001828054600181600116156101000203166002900480156109b75780601f1061098c576101008083540402835291602001916109b7565b820191906000526020600020905b81548152906001019060200180831161099a57829003601f168201915b50505050509050919050565b816000826040518082805190602001908083835b6020831015156109fc57805182526020820191506020810190506020830392506109d7565b6001836020036101000a038019825116818451168082178552505050505050905001915050908152602001604051809103902060006101000a81548173ffffffffffffffffffffffffffffffffffffffff021916908373ffffffffffffffffffffffffffffffffffffffff1602179055505050565b806002836040518082805190602001908083835b602083101515610aaa5780518252602082019150602081019050602083039250610a85565b6001836020036101000a03801982511681845116808217855250505050505090500191505090815260200160405180910390209080519060200190610af0929190610fb5565b505050565b6000816040518082805190602001908083835b602083101515610b2d5780518252602082019150602081019050602083039250610b08565b6001836020036101000a038019825116818451168082178552505050505050905001915050908152602001604051809103902060006101000a81549073ffffffffffffffffffffffffffffffffffffffff021916905550565b6002816040518082805190602001908083835b602083101515610bbe5780518252602082019150602081019050602083039250610b99565b6001836020036101000a03801982511681845116808217855250505050505090500191505090815260200160405180910390206000610bfd9190611035565b50565b600080826040518082805190602001908083835b602083101515610c395780518252602082019150602081019050602083039250610c14565b6001836020036101000a038019825116818451168082178552505050505050905001915050908152602001604051809103902060009054906101000a900473ffffffffffffffffffffffffffffffffffffffff169050919050565b60036002826040518082805190602001908083835b602083101515610cce5780518252602082019150602081019050602083039250610ca9565b6001836020036101000a03801982511681845116808217855250505050505090500191505090815260200160405180910390206040518082805460018160011615610100020316600290048015610d5c5780601f10610d3a576101008083540402835291820191610d5c565b820191906000526020600020905b815481529060010190602001808311610d48575b505091505090815260200160405180910390206000610d7b9190611035565b50565b60606003826040518082805190602001908083835b602083101515610db85780518252602082019150602081019050602083039250610d93565b6001836020036101000a03801982511681845116808217855250505050505090500191505090815260200160405180910390208054600181600116156101000203166002900480601f016020809104026020016040519081016040528092919081815260200182805460018160011615610100020316600290048015610e7f5780601f10610e5457610100808354040283529160200191610e7f565b820191906000526020600020905b815481529060010190602001808311610e6257829003601f168201915b50505050509050919050565b80600160008473ffffffffffffffffffffffffffffffffffffffff1673ffffffffffffffffffffffffffffffffffffffff1681526020019081526020016000209080519060200190610ede929190610fb5565b505050565b600160008273ffffffffffffffffffffffffffffffffffffffff1673ffffffffffffffffffffffffffffffffffffffff1681526020019081526020016000206000610f2e9190611035565b50565b806003836040518082805190602001908083835b602083101515610f6a5780518252602082019150602081019050602083039250610f45565b6001836020036101000a03801982511681845116808217855250505050505090500191505090815260200160405180910390209080519060200190610fb0929190610fb5565b505050565b828054600181600116156101000203166002900490600052602060002090601f016020900481019282601f10610ff657805160ff1916838001178555611024565b82800160010185558215611024579182015b82811115611023578251825591602001919060010190611008565b5b509050611031919061107d565b5090565b50805460018160011615610100020316600290046000825580601f1061105b575061107a565b601f016020900490600052602060002090810190611079919061107d565b5b50565b61109f91905b8082111561109b576000816000905550600101611083565b5090565b905600a165627a7a7230582053208809220a29787f11da9031dd8efd680ea4a3086b79b80b4682b8fb9d398b0029",
  "source": "pragma solidity ^0.4.18;\n/*\n** The storage contract for vanityURL_Upgradable contract\n** Storage contract remains same even when logic of vanity contract is changed\n*/\n\n//The contract keeps track of storage\ncontract VanityStorage {\n      // This declares a state variable that mapping for vanityURL to address\n  mapping (string => address) vanity_address_mapping;\n  // This declares a state variable that mapping for address to vanityURL\n  mapping (address => string ) address_vanity_mapping;\n  // This declares a state variable that mapping for vanityURL to Springrole ID\n  mapping (string => string) vanity_springrole_id_mapping;\n  // This declares a state variable that mapping for Springrole ID to vanityURL\n  mapping (string => string) springrole_id_vanity_mapping;\n\n  //function to retrieve address from vanity url\n    function retrieveWalletForVanity(string _vanity_url) constant public returns (address) {\n    return vanity_address_mapping[_vanity_url];\n  }\n  //function to set vanity url and address mapping\n  function setWalletForVanity(address _address,string _vanity_url) public {\n      vanity_address_mapping[_vanity_url]=_address;\n  }\n  /* function to retrive vanity url from address */\n  function retrieveVanityForWallet(address _address) constant public returns (string) {\n    return address_vanity_mapping[_address];\n  }\n  //function to set address and vanity url\n  function setVanityForWallet(address _address,string vanity_url) public {\n      address_vanity_mapping[_address] = vanity_url;\n  }\n  /* function to retrive wallet springrole id from vanity url */\n  function retrieveSpringroleIdForVanity(string _vanity_url) constant public returns (string) {\n    return vanity_springrole_id_mapping[_vanity_url];\n  }\n  /* function to set wallet springrole id from vanity url */\n  function setSpringroleIdForVanity(string _vanity_url,string springroleId) public {\n    vanity_springrole_id_mapping[_vanity_url]=springroleId;\n  }\n\n  /* function to retrive vanity url from address */\n  \n  function retrieveVanityForSpringroleId(string _springrole_id) constant public returns (string) {\n    return springrole_id_vanity_mapping[_springrole_id];\n  }\n  /* function to set vanity url from address */\n  function setVanityForSpringroleId(string _springrole_id,string vanity_url) public {\n    springrole_id_vanity_mapping[_springrole_id] = vanity_url;\n  }\n  //function to delete address vanity mapping\n  function deleteWalletVanityMapping(address _add) public {\n    delete address_vanity_mapping[_add];\n  }\n  //function to delete vanity address mapping\n  function deleteVanityWalletMapping(string vanity) public {\n    delete vanity_address_mapping[vanity];\n  }\n  //function to delete springroleId vanity mapping\n  function deleteSpringVanityMapping(string vanity) public {\n    delete springrole_id_vanity_mapping[vanity_springrole_id_mapping[vanity]];\n  }\n  //function to delete vanity springrole id mapping \n  function deleteVanitySpringMapping(string vanity) public {\n    delete vanity_springrole_id_mapping[vanity];\n  }\n}",
  "sourcePath": "/Users/pulkit29/Documents/smart-contracts/contracts/VanityStorage.sol",
  "compiler": {
    "name": "solc",
    "version": "0.4.23+commit.124ca40d.Emscripten.clang"
  },
  "schemaVersion": "2.0.0",
  "updatedAt": "2018-06-26T11:04:27.243Z"
}